:040000004EEF00F0CF
:100008005682FACF06F0FBCF07F0D9CF08F0DACF47
:1000180009F0F2AA12EF00F014EF00F01FEF00F061
:10002800F2A419EF00F01BEF00F01FEF00F0B2ECA4
:1000380038F044EF00F0F2AC24EF00F026EF00F0C7
:1000480044EF00F09DAA2BEF00F02DEF00F044EFF5
:1000580000F09EAA32EF00F034EF00F044EF00F019
:1000680002D842EF00F005000101FA6E9951FD6EC9
:100078009A51FE6EF850FF6EFA50120044EF00F0ED
:1000880009C0DAFF08C0D9FF07C0FBFF06C0FAFFA6
:080098005692110057EF33F0FE
:10060000001A77E476D476625C3E640E7738679899
:100610007790778877807778777077687702770C2C
:100620006953313A20416A2B3A2025303264204107
:100630006A2D3A2025303264200053323A20416A34
:100640002B3A202530326420416A2D3A2025303261
:1006500064200053333A20416A2B3A20253032641B
:1006600020416A2D3A202530326420004D656E7598
:1006700020432F46202020202053656E68613A25B4
:1006800031640053616920494E4320444543205062
:10069000525820534156200053313A2520332E32F0
:1006A00066DF25632044443A253464200053323AFF
:1006B0002520332E3266DF25632044543A253464E6
:1006C000200053333A2520332E3266DF2563204342
:1006D0004F323A25346400494E46004E414E00697F
:0B06E0006E66006E616E006C6600002C
:1006EC00000E0001A26F000EA16F7DC0B3F07EC0A2
:1006FC00B4F07FC0B5F080C0B6F0B6BF8AEF03F09F
:10070C0088EF03F0A0EF03F0000EA26F010EA16FB3
:10071C00B3C00AF0B4C00BF0B5C00CF0B6C00DF00D
:10072C00EBEC38F00AC0B3F00BC0B4F00CC0B5F071
:10073C000DC0B6F0000E0001BA6F000EB96FF7C015
:10074C00A5F0F8C0A6F0A151A211D8A4B0EF03F007
:10075C00B2EF03F0B9EF03F04FA4B7EF03F0B9EF2A
:10076C0003F0D3EF03F0A151A211D8A4C0EF03F012
:10077C00C2EF03F0C8EF03F0000E886F2B0E876FEB
:10078C00CCEF03F0000E886F2D0E876F87C050F2F0
:10079C00B94BBA2BA507D8A0A607B3C00AF0B4C0B2
:1007AC000BF0B5C00CF0B6C00DF0A3EC2AF00A04A7
:1007BC000B10D8A4E4EF03F0E6EF03F03DEF04F0E8
:1007CC00BF0E0001826FFF0E836F8151846F856BAA
:1007DC00825184278351852385510AE11A0E845D49
:1007EC00D8A0FBEF03F0FEEF03F0010EFFEF03F0D8
:1007FC00000E896F8A6B89518A11D8B408EF04F006
:10080C000AEF04F018EF04F0500EB9250A6E020E30
:10081C00BA210B6ED70E0C6E060E0D6EE7EC35F092
:10082C0024EF04F0500EB9250A6E020EBA210B6E9D
:10083C00DF0E0C6E060E0D6EE7EC35F00001FD0EB2
:10084C00A527FF0EA6237BC01AF07CC01BF0500E10
:10085C001C6E020E1D6EA5C01EF0A6C01FF05AEC39
:10086C002FF01AC07BF01BC07CF0A2EF09F0B3C0D4
:10087C000AF0B4C00BF0B5C00CF0B6C00DF0A3EC90
:10088C002AF00A500B10D8A44EEF04F050EF04F0ED
:10089C0090EF04F0BF0E0001826FFF0E836F815149
:1008AC00846F856B825184278351852385510AE19E
:1008BC001A0E845DD8A065EF04F068EF04F0010E09
:1008CC0069EF04F0000E8B6F8C6B8B518C11D8B4CC
:1008DC0072EF04F074EF04F082EF04F0500EB925BF
:1008EC000A6E020EBA210B6EDB0E0C6E060E0D6E2E
:1008FC00E7EC35F024EF04F0500EB9250A6E020E29
:10090C00BA210B6EE30E0C6E060E0D6EE7EC35F095
:10091C0024EF04F0000E0001BB6F000EBC6F800EC4
:10092C00BD6F3F0EBE6F000EB86F000EB76FB3C039
:10093C000AF0B4C00BF0B5C00CF0B6C00DF0000E50
:10094C000E6E000E0F6E000E106E000E116ECAECC5
:10095C0031F0D8B0B4EF04F0B6EF04F039EF05F095
:10096C00D5EF04F0BBC00AF0BCC00BF0BDC00CF05E
:10097C00BEC00DF0000E0E6E000E0F6E200E106E2F
:10098C00410E116EA9EC1BF00AC0BBF00BC0BCF001
:10099C000CC0BDF00DC0BEF00001B74BB82BB3C0FE
:1009AC0023F0B4C024F0B5C025F0B6C026F0000E7C
:1009BC000E6E000E0F6E200E106E410E116EBBC02F
:1009CC000AF0BCC00BF0BDC00CF0BEC00DF0A9EC21
:1009DC001BF00AC027F00BC028F00CC029F00DC08A
:1009EC002AF021EC29F0D8B0FEEF04F000EF05F06E
:1009FC00B8EF04F020EF05F0BBC03BF0BCC03CF0FE
:100A0C00BDC03DF0BEC03EF0000E3F6E000E406E0D
:100A1C00200E416E410E426EBEEC1DF03BC0BBF091
:100A2C003CC0BCF03DC0BDF03EC0BEF00001B707FD
:100A3C00D8A0B807B3C023F0B4C024F0B5C025F0DB
:100A4C00B6C026F0BBC027F0BCC028F0BDC029F052
:100A5C00BEC02AF021EC29F0D8A037EF05F039EF11
:100A6C0005F002EF05F081C010F0116A88EC35F04A
:100A7C0010500001A86FA8C0A7F0670EA819D8A441
:100A8C004AEF05F04CEF05F072EF05F04D504E10AB
:100A9C00D8A453EF05F055EF05F059EF05F0000E13
:100AAC004E6E010E4D6E4EBE66EF05F04E5006E1D9
:100ABC004D04D8B064EF05F066EF05F06CEF05F06F
:100ACC00000EA46F060EA36F7BEF05F04DC0A3F0D4
:100ADC004EC0A4F07BEF05F04EBE77EF05F079EF3A
:100AEC0005F066EF05F06CEF05F0670EA819D8A4B9
:100AFC0082EF05F084EF05F0B3EF05F0B8AF92EF9D
:100B0C0005F0FC0EB75DFF0EB859D8A090EF05F0BC
:100B1C0092EF05F0B1EF05F0FF0E826FFF0E836FC1
:100B2C00A3C084F0A4C085F082518427835185230F
:100B3C00B751845D8551800A866FB851800A8659F9
:100B4C00D8A0ABEF05F0ADEF05F0B1EF05F0660EF8
:100B5C00A76FB3EF05F0650EA76FA3C099F0A4C003
:100B6C009AF0670EA819D8A4BEEF05F0C0EF05F0F7
:100B7C00D0EF05F0660EA719D8A4C7EF05F0C9EFA2
:100B8C0005F0D2EF05F0B8BFD0EF05F0CEEF05F0D1
:100B9C00D2EF05F0994B9A2B660EA719D8A4D9EF72
:100BAC0005F0DBEF05F0FBEF05F0B8BFE2EF05F069
:100BBC00E0EF05F0EEEF05F0000EBB6F000EBC6F22
:100BCC00800EBD6F3F0EBE6F000EB86F000EB76F7C
:100BDC00670EA819D8B4F5EF05F0F7EF05F0FBEFA9
:100BEC0005F0B7519927B8519A23000EB26F000E39
:100BFC00B16FB3C0A9F0B4C0AAF0B5C0ABF0B6C029
:100C0C00ACF0BBC09BF0BCC09CF0BDC09DF0BEC0A6
:100C1C009EF08CEF06F0A9C03BF0AAC03CF0ABC034
:100C2C003DF0ACC03EF0BBC03FF0BCC040F0BDC01E
:100C3C0041F0BEC042F0BEEC1DF03BC06DF03CC0BC
:100C4C006EF03DC06FF03EC070F0FBEC20F06DC05C
:100C5C00ADF06EC0AEF06FC0AFF070C0B0F0ADC014
:100C6C0023F0AEC024F0AFC025F0B0C026F01BECD2
:100C7C0028F023C09FF024C0A0F0A9C033F0AAC074
:100C8C0034F0ABC035F0ACC036F0BBC00EF0BCC01D
:100C9C000FF0BDC010F0BEC011F0ADC00AF0AEC078
:100CAC000BF0AFC00CF0B0C00DF0A9EC1BF00AC0FB
:100CBC0037F00BC038F00CC039F00DC03AF08DECA9
:100CCC0037F033C0A9F034C0AAF035C0ABF036C051
:100CDC00ACF0BBC03BF0BCC03CF0BDC03DF0BEC0F6
:100CEC003EF0000E3F6E000E406E200E416E410E27
:100CFC00426EBEEC1DF03BC0BBF03CC0BCF03DC036
:100D0C00BDF03EC0BEF00001B14BB22B9951B15DAC
:100D1C00B251800A826F9A51800A8259D8A099EFF9
:100D2C0006F09BEF06F011EF06F0BBC00AF0BCC05A
:100D3C000BF0BDC00CF0BEC00DF0000E0E6E000E20
:100D4C000F6EA00E106E400E116EA9EC1BF00AC0B7
:100D5C00ADF00BC0AEF00CC0AFF00DC0B0F0A9C040
:100D6C0023F0AAC024F0ABC025F0ACC026F0ADC077
:100D7C0027F0AEC028F0AFC029F0B0C02AF021ECAB
:100D8C0029F0D8B0CCEF06F0CEEF06F0D9EF06F094
:100D9C00000E0001AD6F000EAE6F000EAF6F000EB7
:100DAC00B06F02EF07F0A9C00AF0AAC00BF0ABC0FD
:100DBC000CF0ACC00DF0ADC00EF0AEC00FF0AFC07B
:100DCC0010F0B0C011F0CAEC31F0D8A0F0EF06F082
:100DDC00F2EF06F002EF07F000019FB1F8EF06F01A
:100DEC00FAEF06F002EF07F0000EAD6F000EAE6FDB
:100DFC00000EAF6F000EB06FB3C023F0B4C024F080
:100E0C00B5C025F0B6C026F0ADC027F0AEC028F0B6
:100E1C00AFC029F0B0C02AF031EC17F023C0A9F014
:100E2C0024C0AAF025C0ABF026C0ACF0A9C023F0BA
:100E3C00AAC024F0ABC025F0ACC026F0000E0E6E9C
:100E4C00000E0F6E200E106E410E116E9BC00AF03C
:100E5C009CC00BF09DC00CF09EC00DF0A9EC1BF0DB
:100E6C000AC027F00BC028F00CC029F00DC02AF0E6
:100E7C0021EC29F0D8A045EF07F047EF07F070EF11
:100E8C0007F00001B74BB82B9BC00AF09CC00BF0CD
:100E9C009DC00CF09EC00DF0000E0E6E000E0F6E7D
:100EAC00200E106E410E116EA9EC1BF00AC09BF0C7
:100EBC000BC09CF00CC09DF00DC09EF0660E0001A6
:100ECC00A719D8A46CEF07F06EEF07F070EF07F0DE
:100EDC00994B9A2B9BC0BBF09CC0BCF09DC0BDF045
:100EEC009EC0BEF0650E0001A719D8B480EF07F0C4
:100EFC0082EF07F088EF07F0B7C097F0B8C098F012
:100F0C008CEF07F0000E986F000E976F000E966F27
:100F1C00000E956F000E946F000E936F000EB26F63
:100F2C00000EB16F88EF08F0A9C03BF0AAC03CF0EE
:100F3C00ABC03DF0ACC03EF0BBC03FF0BCC040F01D
:100F4C00BDC041F0BEC042F0BEEC1DF03BC06DF028
:100F5C003CC06EF03DC06FF03EC070F0FBEC20F07A
:100F6C006DC0ADF06EC0AEF06FC0AFF070C0B0F041
:100F7C00ADC023F0AEC024F0AFC025F0B0C026F059
:100F8C001BEC28F023C09FF024C0A0F04FB8D1EF89
:100F9C0007F0D3EF07F0F1EF07F000019F51A0111C
:100FAC00D8A4DBEF07F0DDEF07F0F1EF07F0670EE9
:100FBC00A819D8A4E4EF07F0E6EF07F0F1EF07F07B
:100FCC0098BFEDEF07F0EBEF07F0F1EF07F0934B65
:100FDC00942B3CEF08F0000195519611D8A4F9EF31
:100FEC0007F0FBEF07F025EF08F098BF02EF08F0D1
:100FFC0000EF08F025EF08F0500EB925D96E020E5F
:10100C00BA21DA6E2E0EDF6EB94BBA2BA507D8A01B
:10101C00A607000E966F010E956F25EF08F0500E87
:10102C00B925D96E020EBA21DA6E300EDF6EB94BCD
:10103C00BA2BA507D8A0A6079307D8A0940793515D
:10104C009411D8A42CEF08F02EEF08F015EF08F04F
:10105C00500EB925D96E020EBA21DA6E9F51300F9F
:10106C00DF6EB94BBA2BA507D8A0A607A9C033F0E1
:10107C00AAC034F0ABC035F0ACC036F0BBC00EF03B
:10108C00BCC00FF0BDC010F0BEC011F0ADC00AF076
:10109C00AEC00BF0AFC00CF0B0C00DF0A9EC1BF063
:1010AC000AC037F00BC038F00CC039F00DC03AF064
:1010BC008DEC37F033C0A9F034C0AAF035C0ABF0DA
:1010CC0036C0ACF0BBC03BF0BCC03CF0BDC03DF08A
:1010DC00BEC03EF0000E3F6E000E406E200E416E04
:1010EC00410E426EBEEC1DF03BC0BBF03CC0BCF0F0
:1010FC003DC0BDF03EC0BEF000019707D8A09807D8
:10110C00B14BB22B9951B15DB251800A826F9A5199
:10111C00800A8259D8B095EF08F097EF08F0A5EF48
:10112C0008F0BABFA3EF08F0BA5109E14B0EB95D54
:10113C00D8A0A3EF08F0A5EF08F09AEF07F09551AF
:10114C009611D8A4ACEF08F0AEEF08F0BFEF08F0A2
:10115C004FA8B3EF08F0B5EF08F0BFEF08F0500E52
:10116C00B925D96E020EBA21DA6E2E0EDF6EB94B8E
:10117C00BA2B500EB925D96E020EBA21DA6E000EBA
:10118C00DF6E650EA719D8A4CEEF08F0D0EF08F0EB
:10119C0029EF04F0000EB26F4F0EB16F500EB12557
:1011AC00D96E020EB221DA6E000EDF6E000EA26F47
:1011BC00000EA16FB8BFE7EF08F0E5EF08F0EFEF16
:1011CC0008F0000EA26F010EA16FB76DB81FD8B05A
:1011DC00B82B000EA46F020EA36F20EF09F0B1071D
:1011EC00D8A0B207500EB125D96E020EB221DA6E1C
:1011FC00B7C012F0B8C013F0000E156E0A0E146EC4
:10120C0019EC30F01250300FDF6EB7C00AF0B8C0D6
:10121C000BF0000E0D6E0A0E0C6EF8EC2EF00AC0E0
:10122C00B7F00BC0B8F00001A307D8A0A407A5071E
:10123C00D8A0A607B751B811D8A427EF09F029EF09
:10124C0009F0F5EF08F0A4BF36EF09F0A45106E160
:10125C00A305D8B034EF09F036EF09F0F5EF08F03C
:10126C00B107D8A0B207A151A211D8A440EF09F040
:10127C0042EF09F048EF09F0000E8E6F2B0E8D6FC8
:10128C004CEF09F0000E8E6F2D0E8D6F500EB125A8
:10129C00D96E020EB221DA6E8DC0DFFFA507D8A081
:1012AC00A607B107D8A0B207BF0E826FFF0E836FDF
:1012BC008151846F856B825184278351852385519D
:1012CC000AE11A0E845DD8A06EEF09F071EF09F0F7
:1012DC00010E72EF09F0000E916F926B9151921109
:1012EC00D8A47BEF09F07DEF09F083EF09F0000E35
:1012FC00906F650E8F6F87EF09F0000E906F450EA3
:10130C008F6F500EB125D96E020EB221DA6E8FC0DE
:10131C00DFFFA507D8A0A607500EB9250A6E020E4E
:10132C00BA210B6E500EB1250C6E020EB2210D6E51
:10133C00E7EC35F029EF04F01200B9EC3AF00101BA
:10134C0061510A5C3E6E62510B583F6E63510C58F2
:10135C00406E64510D58416E415040103F1009E1F0
:10136C000B0E3E5CD8A0BDEF09F0BFEF09F086EF85
:10137C000DF0A151D8B4C5EF09F0C7EF09F086EF15
:10138C000DF08B8A20EE18F03C50D9263D50DA2215
:10139C00DE2A000EDD22000E4B6E000E4A6EF9EFB7
:1013AC0009F0000E4A24D96E020E4B20DA6E4E0E56
:1013BC00DE18D8A4E4EF09F0E6EF09F0F7EF09F036
:1013CC00020E4A24D96E020E4B20DA6E050EDE1880
:1013DC00D8A4F3EF09F0F5EF09F0F7EF09F0000EE0
:1013EC009D6F4A4A4B2A87514A5C88514B58D8A06A
:1013FC0002EF0AF004EF0AF0D7EF09F03DEF0DF021
:10140C00000E4B6E000E4A6E000E4B6E000E4A6EB6
:10141C0063EF0AF0000E4A24D96E020E4B20DA6EEE
:10142C004E0EDE18D8A41DEF0AF01FEF0AF061EF84
:10143C000AF0020E4A24D96E020E4B20DA6E050E0B
:10144C00DE18D8A42CEF0AF02EEF0AF061EF0AF0A8
:10145C004E0E26EC3BF0010E4A24D96E020E4B20A8
:10146C00DA6EDF5026EC3BF0060E26EC3BF0010E5C
:10147C0001019D6F010E4A24D96E020E4B20DA6ECB
:10148C00DF50536E53C09FF12B0E5318D8A451EF5D
:10149C000AF053EF0AF055EF0AF0320E9F6F20EE70
:1014AC0018F03C50D9263D50DA22000EDE6E000EAC
:1014BC00DD6E56EF0DF04A4A4B2A87514A5C885133
:1014CC004B58D8A06CEF0AF06EEF0AF010EF0AF050
:1014DC0056EF0DF0000E4B6E000E4A6E000E4B6E6A
:1014EC00000E4A6EF6EF0CF0000E4A24D96E020E76
:1014FC004B20DA6EDE04D8A486EF0AF088EF0AF0EF
:10150C00EEEF0CF0010E4A24D96E020E4B20DA6E6F
:10151C00300EDE18D8A495EF0AF097EF0AF0EEEF34
:10152C000CF0020E4A24D96E020E4B20DA6EDF50FC
:10153C003E6E3F6A9F51406E416A100E4026000E6F
:10154C0041223E50401807E13F504118D8A4B1EF5A
:10155C000AF0B3EF0AF0EEEF0CF00F0E4A24D96E3E
:10156C00020E4B20DA6E170EDE18D8A4C0EF0AF06C
:10157C00C2EF0AF0EEEF0CF020EE18F03C50D9263A
:10158C003D50DA22000EDE6E000EDD6E220E531878
:10159C00D8A4D3EF0AF0D5EF0AF04FEF0BF0000E02
:1015AC000A6E010E9EEC2BF03CC0D9FF3DC0DAFF59
:1015BC000AC0DEFF0BC0DEFF0CC0DEFF0DC0DEFF7D
:1015CC00000E0E6E000E0F6E000E106E430E116E9E
:1015DC003CC0D9FF3DC0DAFFDECF0AF0DECF0BF006
:1015EC00DECF0CF0DECF0DF0A9EC1BF00AC023F01F
:1015FC000BC024F00CC025F00DC026F01BEC28F01D
:10160C0023C042F024C043F043500101536F42C049
:10161C0052F13CC0D9FF3DC0DAFFDECF2DF0DECF5A
:10162C002EF0DECF2FF0DECF30F0CD0E316E010E6E
:10163C00326E040E336E71EC30F0010E0A6E010E38
:10164C009EEC2BF03CC0D9FF3DC0DAFF0AC0DEFF98
:10165C000BC0DEFF0CC0DEFF0DC0DEFF3CC0D9FFAF
:10166C003DC0DAFFDECF2DF0DECF2EF0DECF2FF037
:10167C00DECF30F0C80E316E010E326E050E336EB9
:10168C0071EC30F0220E01019E6F96EC27F0E9EF21
:10169C000CF0240E5318D8A456EF0BF058EF0BF0A7
:1016AC00DAEF0BF0000E0A6E020E9EEC2BF020EE21
:1016BC0004F03C50D9263D50DA220AC0DEFF0BC0A4
:1016CC00DEFF0CC0DEFF0DC0DEFF000E0E6E000E46
:1016DC000F6E000E106E430E116E20EE04F03C5097
:1016EC00D9263D50DA22DECF0AF0DECF0BF0DECF6A
:1016FC000CF0DECF0DF0A9EC1BF00AC023F00BC0F0
:10170C0024F00CC025F00DC026F01BEC28F023C0F3
:10171C0044F024C045F045500101536F44C052F1D0
:10172C0020EE04F03C50D9263D50DA22DECF2DF0CD
:10173C00DECF2EF0DECF2FF0DECF30F0CD0E316EBF
:10174C00010E326E040E336E71EC30F0010E0A6E27
:10175C00020E9EEC2BF020EE04F03C50D9263D50AE
:10176C00DA220AC0DEFF0BC0DEFF0CC0DEFF0DC0AC
:10177C00DEFF20EE04F03C50D9263D50DA22DECFBD
:10178C002DF0DECF2EF0DECF2FF0DECF30F0C80EF6
:10179C00316E010E326E050E336E71EC30F0240E8C
:1017AC0001019E6F4BEF0BF0230E5318D8A4E1EF01
:1017BC000BF0E3EF0BF065EF0CF0000E0A6E030E6E
:1017CC009EEC2BF020EE08F03C50D9263D50DA224E
:1017DC000AC0DEFF0BC0DEFF0CC0DEFF0DC0DEFF5B
:1017EC00000E0E6E000E0F6E000E106E430E116E7C
:1017FC0020EE08F03C50D9263D50DA22DECF0AF01C
:10180C00DECF0BF0DECF0CF0DECF0DF0A9EC1BF031
:10181C000AC023F00BC024F00CC025F00DC026F03C
:10182C001BEC28F023C046F024C047F047500101C0
:10183C00536F46C052F120EE08F03C50D9263D5073
:10184C00DA22DECF2DF0DECF2EF0DECF2FF0DECF82
:10185C0030F0CD0E316E010E326E040E336E71EC23
:10186C0030F0010E0A6E030E9EEC2BF020EE08F009
:10187C003C50D9263D50DA220AC0DEFF0BC0DEFFF9
:10188C000CC0DEFF0DC0DEFF20EE08F03C50D92668
:10189C003D50DA22DECF2DF0DECF2EF0DECF2FF052
:1018AC00DECF30F0C80E316E010E326E050E336E87
:1018BC0071EC30F0230E01019E6F4BEF0BF02B0EF1
:1018CC005318D8A46CEF0CF06EEF0CF0E9EF0CF0A1
:1018DC0074EC31F020EE0CF03C50D9263D50DA225D
:1018EC0031C0DEFF32C0DDFF1EEC31F020EE0EF019
:1018FC003C50D9263D50DA2231C0DEFF32C0DDFF2C
:10190C00C8EC30F020EE10F03C50D9263D50DA22D5
:10191C0031C0DEFF32C0DDFF20EE0CF03C50D9268A
:10192C003D50DA22DECF48F0DDCF49F0AA0E02019D
:10193C00C36F000EC46F000EC56F000EC66F000E95
:10194C00C76F000EC86F000EC96F000ECA6F000E75
:10195C00CB6F20EE0CF03C50D9263D50DA22DECF76
:10196C0048F0DDCF49F04950CD6F48C0CCF220EEA5
:10197C000EF03C50D9263D50DA22DECF48F0DDCFB8
:10198C0049F048C048F049C049F04950CF6F48C0B1
:10199C00CEF220EE10F03C50D9263D50DA22DECFAC
:1019AC0048F0DDCF49F04950D16F48C0D0F2D26930
:1019BC00D369D469D569D669D769D869D969BBECBB
:1019CC002FF0E9EF0CF0020E01019D6F56EF0DF0B8
:1019DC00040E26EC3BF0000E01019D6F4A4A4B2A87
:1019EC0087514A5C88514B58D8A0FFEF0CF001EF9F
:1019FC000DF07AEF0AF056EF0DF0000E4B6E000E64
:101A0C004A6E000E4B6E000E4A6E2DEF0DF0000E5E
:101A1C004A24D96E020E4B20DA6E060EDE18D8A4BC
:101A2C001AEF0DF01CEF0DF02BEF0DF0040E26EC61
:101A3C003BF020EE18F03C50D9263D50DA22000E37
:101A4C00DE6E000EDD6E38EF0DF04A4A4B2A8751E0
:101A5C004A5C88514B58D8A036EF0DF038EF0DF09A
:101A6C000DEF0DF0000E01019D6F56EF0DF09D5125
:101A7C003E6E3F6A3F50000AD8B447EF0DF056EF68
:101A8C000DF03E50000AD8B406EF0AF0010AD8B4A3
:101A9C0070EF0AF0030AD8B403EF0DF056EF0DF017
:101AAC00000E4B6E000E4A6E74EF0DF04A4A4B2A34
:101ABC00000E4A24D96E020E4B20DA6E000EDF6E39
:101ACC004A500101875D4B508859D8B070EF0DF02A
:101ADC0072EF0DF074EF0DF056EF0DF03BEC3BF0A8
:101AEC000009D8B47CEF0DF07EEF0DF05CEF0DF03B
:101AFC008B9A000E0101886F000E876F000EA16F8C
:101B0C001200C1C0D9FFC2C0DAFFDECFF6FFDDCFB5
:101B1C00F7FF0800F550250AD8A497EF0DF099EFC0
:101B2C000DF01BEF11F0C1C0D9FFC2C0DAFFDE2AE5
:101B3C00000EDD22000E0001F86F000EF76FF7C0EB
:101B4C004FF0F8C050F04D684E68000ED26F000E8A
:101B5C00D16FF7EF0DF04F80C1C0D9FFC2C0DAFFD3
:101B6C00DE2A000EDD22F7EF0DF04F82B2EF0DF002
:101B7C004F84B2EF0DF04F86B2EF0DF04F88B2EFFD
:101B8C000DF0000ED26F010ED16FF7EF0DF0C1C04A
:101B9C00D9FFC2C0DAFFDECFF6FFDDCFF7FF0800BA
:101BAC00F550C56FC66BC651000AD8B4E0EF0DF006
:101BBC00C7EF0DF0C551200AD8B4C1EF0DF0030AE0
:101BCC00D8B4C4EF0DF0080AD8B4BEEF0DF0060A75
:101BDC00D8B4B1EF0DF01D0AD8B4BBEF0DF0C7EFC0
:101BEC000DF0D151D211D8B4FEEF0DF000EF0EF084
:101BFC00CDEF0DF04FA005EF0EF007EF0EF008EF54
:101C0C000EF04F92C1C0D9FFC2C0DAFFDECFF6FF93
:101C1C00DDCFF7FF0800F5502A0AD8A418EF0EF014
:101C2C001AEF0EF043EF0EF0C1C0D9FFC2C0DAFFBD
:101C3C00DE2A000EDD22C3C0D9FFC4C0DAFFDFCF1D
:101C4C00C5F0020EDE26DFCFC6F0000EDD22C5C0C9
:101C5C00D9FFC6C0DAFFDECFF7F0DDCFF8F0F8BF62
:101C6C003CEF0EF03AEF0EF087EF0EF04F80F76D71
:101C7C00F81FD8B0F82B87EF0EF0C1C0D9FFC2C047
:101C8C00DAFFDECF11F0DDCF12F0E0EC22F011C064
:101C9C00F7F012C0F8F05AEF0EF0C1C0D9FFC2C075
:101CAC00DAFFDE2A000EDD22D00E0001C56FFF0E1A
:101CBC00C66FC1C0D9FFC2C0DAFFDECFF6FFDDCFE1
:101CCC00F7FF0800F550C76FC86BC551C727C65141
:101CDC00C823C8510AE10A0EC75DD8A078EF0EF0F0
:101CEC007BEF0EF0010E7CEF0EF0000ED36FD46B79
:101CFC00D351D411D8A485EF0EF087EF0EF053EF2B
:101D0C000EF0C1C0D9FFC2C0DAFFDECFF6FFDDCFC7
:101D1C00F7FF0800F5502E0AD8A497EF0EF099EFB4
:101D2C000EF017EF0FF0000E4E6E000E4D6EC1C090
:101D3C00D9FFC2C0DAFFDE2A000EDD22C1C0D9FFF6
:101D4C00C2C0DAFFDECFF6FFDDCFF7FF0800F5509B
:101D5C002A0AD8A4B4EF0EF0B6EF0EF0D3EF0EF0C3
:101D6C00C1C0D9FFC2C0DAFFDE2A000EDD22C3C01B
:101D7C00D9FFC4C0DAFFDFCFC5F0020EDE26DFCFFD
:101D8C00C6F0000EDD22C5C0D9FFC6C0DAFFDECF1B
:101D9C004DF0DDCF4EF017EF0FF0C1C0D9FFC2C030
:101DAC00DAFFDECF11F0DDCF12F0E0EC22F011C043
:101DBC004DF012C04EF0EAEF0EF0C1C0D9FFC2C018
:101DCC00DAFFDE2A000EDD22D00E0001C56FFF0EF9
:101DDC00C66FC1C0D9FFC2C0DAFFDECFF6FFDDCFC0
:101DEC00F7FF0800F550C76FC86BC551C727C65120
:101DFC00C823C8510AE10A0EC75DD8A008EF0FF03E
:101E0C000BEF0FF0010E0CEF0FF0000ED56FD66B31
:101E1C00D551D611D8A415EF0FF017EF0FF0E3EF53
:101E2C000EF0C1C0D9FFC2C0DAFFDECFF6FFDDCFA6
:101E3C00F7FF0800F550106E116A88EC35F0105061
:101E4C000001DD6FDD51D8B42EEF0FF030EF0FF045
:101E5C006AEF0FF0C1C0D9FFC2C0DAFFDECFC5F008
:101E6C00DDCFC6F0010EC527000EC623C5C0F6FF98
:101E7C00C6C0F7FF0800F550106E116A88EC35F0FB
:101E8C0010500001DE6FDE51D8B44FEF0FF051EF60
:101E9C000FF06AEF0FF0C1C0D9FFC2C0DAFFDECF7E
:101EAC00C5F0DDCFC6F0020EC527000EC623C5C097
:101EBC00F6FFC6C0F7FF0800F550106E116A88ECEB
:101ECC0035F010500001DF6FC1C0D9FFC2C0DAFF7E
:101EDC00DECFF6FFDDCFF7FF0800F550630AD8A47C
:101EEC007AEF0FF07CEF0FF0A3EF0FF0C1C0D9FF2A
:101EFC00C2C0DAFFDE2A000EDD22C3C0D9FFC4C087
:101F0C00DAFFDFCFC5F0020EDE26DFCFC6F0000E03
:101F1C00DD22C5C0D9FFC6C0DAFFDF50E06FBFC0FD
:101F2C0013F0C0C014F0E0C015F0F7EC2CF013C0A7
:101F3C00BFF014C0C0F036EF11F0C1C0D9FFC2C061
:101F4C00DAFFDECFF6FFDDCFF7FF0800F550640AAD
:101F5C00D8B4B3EF0FF0B5EF0FF0C7EF0FF0C1C06F
:101F6C00D9FFC2C0DAFFDECFF6FFDDCFF7FF0800E6
:101F7C00F550690AD8A4C5EF0FF0C7EF0FF007EFC3
:101F8C0010F0C1C0D9FFC2C0DAFFDE2A000EDD227C
:101F9C00C3C0D9FFC4C0DAFFDFCFC5F0020EDE2606
:101FAC00DFCFC6F0000EDD22C5C0D9FFC6C0DAFFF8
:101FBC00DECFC9F0DDCFCAF0000ECABFFF0ECB6F6B
:101FCC00CC6FCD6FCE6FCF6FD06FBFC025F0C0C0C0
:101FDC0026F0C9C027F0CAC028F0CBC029F0CCC06D
:101FEC002AF0CDC02BF0CEC02CF0CFC02DF0D0C03D
:101FFC002EF08CEC1FF025C0BFF026C0C0F036EFE1
:10200C0011F0660EDD19D8A40EEF10F010EF10F0E1
:10201C0050EF10F0C1C0D9FFC2C0DAFFDECFF6FF1F
:10202C00DDCFF7FF0800F5CFE0F0C1C0D9FFC2C08B
:10203C00DAFFDE2A000EDD22C3C0D9FFC4C0DAFFEE
:10204C00DFCFC5F0040EDE26DFCFC6F0000EDD229A
:10205C00C5C0D9FFC6C0DAFFDECFD9F0DECFDAF0CB
:10206C00DECFDBF0DECFDCF0BFC07BF0C0C07CF09D
:10207C00D9C07DF0DAC07EF0DBC07FF0DCC080F030
:10208C00E0C081F076EC03F07BC0BFF07CC0C0F008
:10209C0036EF11F0DD0E0A6E000E0B6EE70E0C6EB5
:1020AC00060E0D6E000E0F6E020E0E6E8CEC2CF0EA
:1020BC000A500B10D8A465EF10F067EF10F0E3EFA7
:1020CC0010F0C1C0D9FFC2C0DAFFDECFC5F0DDCF42
:1020DC00C6F0010E0001C527000EC623C5C0F6FFD1
:1020EC00C6C0F7FF0800F5CFE0F0BF0EC56FFF0EBE
:1020FC00C66FC1C0D9FFC2C0DAFFDECFF6FFDDCF9D
:10210C00F7FF0800F550C76FC86BC551C727C651FC
:10211C00C823C8510AE11A0EC75DD8A098EF10F079
:10212C009BEF10F0010E9CEF10F0000ED76FD86BE8
:10213C00D751D811D8B4A5EF10F0A7EF10F0C1EF1C
:10214C0010F0C3C0D9FFC4C0DAFFDFCFC5F0040E56
:10215C00DE26DFCFC6F0000EDD22C5C0D9FFC6C01B
:10216C00DAFFDECFD9F0DECFDAF0DECFDBF0DECF78
:10217C00DCF0D9EF10F0C3C0D9FFC4C0DAFFDFCF59
:10218C00C5F0040EDE26DFCFC6F0000EDD22C5C082
:10219C00D9FFC6C0DAFFDECFD9F0DECFDAF0DECF62
:1021AC00DBF0DECFDCF0020EC1C0D9FFC2C0DAFF1B
:1021BC00DE26000EDD223AEF10F0C1C0D9FFC2C0FE
:1021CC00DAFFDECFF6FFDDCFF7FF0800F550250A6A
:1021DC00D8A4F3EF10F0F5EF10F00DEF11F0C1C033
:1021EC00D9FFC2C0DAFFDE2A000EDD22000E0B6E14
:1021FC00250E0A6EBFC00CF0C0C00DF0CCEC2DF05B
:10220C00000E0001C06F010EBF6F36EF11F0C1C0A0
:10221C00D9FFC2C0DAFFDE2A000EDD22000E00015B
:10222C00C06F000EBF6F36EF11F0C1C0D9FFC2C036
:10223C00DAFFDECFF6FFDDCFF7FF0800F5500A6EB0
:10224C000B6ABFC00CF0C0C00DF0CCEC2DF0C1C0BF
:10225C00D9FFC2C0DAFFDE2A000EDD2206EF11F034
:10226C0012000001766F000E0001796F000E7A6F7C
:10227C00000E7B6F000E7C6F000E7D6F765169EC4B
:10228C0037F02BC077F02CC078F000017751781123
:10229C00D8B453EF11F055EF11F053EF14F076055D
:1022AC00D8A45BEF11F05DEF11F053EF12F00101C8
:1022BC00A551020D640EF324D96E030EF420DA6ED0
:1022CC0077C0DEFF78C0DDFFA52B310EA56571EF61
:1022DC0011F073EF11F075EF11F0000EA56F000EF9
:1022EC0000017D6F7D51020D640EF324D96E030E37
:1022FC00F420DA6EDECF47F0DDCF48F04750792579
:10230C00796F48507A217A6F000E7B217B6F000E1B
:10231C007C217C6F7D2B310E7D6597EF11F099EF51
:10232C0011F078EF11F079C016F07AC017F07BC07D
:10233C0018F07CC019F0320E1A6E000E1B6E000ED7
:10234C001C6E000E1D6E73EC32F016C074F017C0CC
:10235C0075F00101AB510A6E0B6A0C6A0D6A010E25
:10236C0006EC22F00AC027F00BC028F00CC029F0B4
:10237C000DC02AF074C00AF075C00BF00C6A0D6A1F
:10238C00000E06EC22F00AC023F00BC024F00CC0A7
:10239C0025F00DC026F031EC17F023C070F024C0EE
:1023AC0071F025C072F026C073F00101AA510A6EBB
:1023BC000B6A0C6A0D6A010E06EC22F00AC037F0AB
:1023CC000BC038F00CC039F00DC03AF070C033F0CF
:1023DC0071C034F072C035F073C036F08DEC37F04C
:1023EC0033C03BF034C03CF035C03DF036C03EF05D
:1023FC00000E3F6E000E406E000E416E430E426E9C
:10240C00BEEC1DF06EC0D9FF6FC0DAFF3BC0DEFF23
:10241C003CC0DEFF3DC0DEFF3EC0DEFF00016D05AF
:10242C00D8A41BEF12F01DEF12F05FEF14F0660E44
:10243C000E6E660E0F6EE60E106E3F0E116E6EC0B7
:10244C00D9FF6FC0DAFFDECF0AF0DECF0BF0DECFA4
:10245C000CF0DECF0DF0A9EC1BF00AC023F00BC082
:10246C0024F00CC025F00DC026F0000E276E000ED7
:10247C00286E000E296E420E2A6E31EC17F06EC0DB
:10248C00D9FF6FC0DAFF23C0DEFF24C0DEFF25C0FA
:10249C00DEFF26C0DEFF5FEF14F0020E7619D8A423
:1024AC005AEF12F05CEF12F052EF13F00101A4514D
:1024BC00020D000EF324D96E030EF420DA6E77C0F1
:1024CC00DEFF78C0DDFFA42B310EA46570EF12F097
:1024DC0072EF12F074EF12F0000EA46F000E0001F8
:1024EC007D6F7D51020D000EF324D96E030EF42086
:1024FC00DA6EDECF47F0DDCF48F047507925796FA3
:10250C0048507A217A6F000E7B217B6F000E7C2164
:10251C007C6F7D2B310E7D6596EF12F098EF12F0EB
:10252C0077EF12F079C016F07AC017F07BC018F074
:10253C007CC019F0320E1A6E000E1B6E000E1C6E53
:10254C00000E1D6E73EC32F016C074F017C075F0EF
:10255C000101A9510A6E0B6A0C6A0D6A010E06EC98
:10256C0022F00AC027F00BC028F00CC029F00DC0D7
:10257C002AF074C00AF075C00BF00C6A0D6A000EDC
:10258C0006EC22F00AC023F00BC024F00CC025F09E
:10259C000DC026F031EC17F023C070F024C071F0A0
:1025AC0025C072F026C073F00101A8510A6E0B6AA7
:1025BC000C6A0D6A010E06EC22F00AC037F00BC053
:1025CC0038F00CC039F00DC03AF070C033F071C067
:1025DC0034F072C035F073C036F08DEC37F033C088
:1025EC003BF034C03CF035C03DF036C03EF0000E40
:1025FC003F6E000E406E000E416E430E426EBEECFE
:10260C001DF06EC0D9FF6FC0DAFF3BC0DEFF3CC0CF
:10261C00DEFF3DC0DEFF3EC0DEFF00016D05D8A42D
:10262C001AEF13F01CEF13F05FEF14F0660E0E6E42
:10263C00660E0F6EE60E106E3F0E116E6EC0D9FF59
:10264C006FC0DAFFDECF0AF0DECF0BF0DECF0CF07E
:10265C00DECF0DF0A9EC1BF00AC023F00BC024F068
:10266C000CC025F00DC026F0000E276E000E286E53
:10267C00000E296E420E2A6E31EC17F06EC0D9FF97
:10268C006FC0DAFF23C0DEFF24C0DEFF25C0DEFFF3
:10269C0026C0DEFF5FEF14F0030E7619D8A459EFB5
:1026AC0013F05BEF13F051EF14F00101A351020D85
:1026BC00000EF324D96E040EF420DA6E77C0DEFF20
:1026CC0078C0DDFFA32B310EA3656FEF13F071EF14
:1026DC0013F073EF13F0000EA36F000E00017D6F6B
:1026EC007D51020D000EF324D96E040EF420DA6E27
:1026FC00DECF47F0DDCF48F047507925796F485051
:10270C007A217A6F000E7B217B6F000E7C217C6F0F
:10271C007D2B310E7D6595EF13F097EF13F076EF6F
:10272C0013F079C016F07AC017F07BC018F07CC09B
:10273C0019F0320E1A6E000E1B6E000E1C6E000E7F
:10274C001D6E73EC32F016C074F017C075F00101F9
:10275C00A7510A6E0B6A0C6A0D6A010E06EC22F088
:10276C000AC027F00BC028F00CC029F00DC02AF0CD
:10277C0074C00AF075C00BF00C6A0D6A000E06EC02
:10278C0022F00AC023F00BC024F00CC025F00DC0C1
:10279C0026F031EC17F023C070F024C071F025C086
:1027AC0072F026C073F00101A6510A6E0B6A0C6A16
:1027BC000D6A010E06EC22F00AC037F00BC038F09F
:1027CC000CC039F00DC03AF070C033F071C034F069
:1027DC0072C035F073C036F08DEC37F033C03BF07F
:1027EC0034C03CF035C03DF036C03EF0000E3F6EBC
:1027FC00000E406E000E416E430E426EBEEC1DF09C
:10280C006EC0D9FF6FC0DAFF3BC0DEFF3CC0DEFFFD
:10281C003DC0DEFF3EC0DEFF00016D05D8A419EF00
:10282C0014F01BEF14F05FEF14F0660E0E6E660ED4
:10283C000F6EE60E106E3F0E116E6EC0D9FF6FC09C
:10284C00DAFFDECF0AF0DECF0BF0DECF0CF0DECFFE
:10285C000DF0A9EC1BF00AC023F00BC024F00CC047
:10286C0025F00DC026F0000E276E000E286E000E0F
:10287C00296E420E2A6E31EC17F06EC0D9FF6FC074
:10288C00DAFF23C0DEFF24C0DEFF25C0DEFF26C03A
:10289C00DEFF5FEF14F05FEF14F06EC0D9FF6FC076
:1028AC00DAFF000EDE6E000EDE6E000EDE6E000E27
:1028BC00DD6E1200B9EC3AF00AC079F10BC07AF176
:1028CC000CC07BF10DC07CF101017551795DDD6FA0
:1028DC0076517A59DE6F77517B59DF6F78517C597D
:1028EC00E06FE051DF11DE1109E1FA0EDD5DD8A0D9
:1028FC0082EF14F084EF14F032EF15F079C175F11A
:10290C007AC176F17BC177F17CC178F1E10E0001DF
:10291C00E96F010EEA6F210EEB6F060EEC6F20EEE5
:10292C0013F0F551D926F651DA22DF500101DD6F93
:10293C00DD510001ED6FEE6B20EE12F0F551D92652
:10294C00F651DA22DF500101DE6FDE510001EF6F2C
:10295C00F06B43EC36F0010E136EE10E146E010EAB
:10296C00156E010E6FEC3AF0E10E0001E96F010EED
:10297C00EA6F3A0EEB6F060EEC6F20EE15F0F55188
:10298C00D926F651DA22DF500101DD6FDD5100014D
:10299C00ED6FEE6B20EE14F0F551D926F651DA22DC
:1029AC00DF500101DE6FDE510001EF6FF06B43EC85
:1029BC0036F0010E136EE10E146E010E156E020E42
:1029CC006FEC3AF0E10E0001E96F010EEA6F530E65
:1029DC00EB6F060EEC6F20EE17F0F551D926F65181
:1029EC00DA22DF500101DD6FDD510001ED6FEE6B7E
:1029FC0020EE16F0F551D926F651DA22DF500101FE
:102A0C00DE6FDE510001EF6FF06B43EC36F0010E20
:102A1C00136EE10E146E010E156E030E6FEC3AF090
:102A2C00E10E0001E96F010EEA6F830EEB6F060EEB
:102A3C00EC6F43EC36F0010E136EE10E146E010ECA
:102A4C00156E040E6FEC3AF0FBC00DF0010E0E6E1D
:102A5C000001FC5122EC2BF01EEC25F00101F56F6E
:102A6C000FEF17F0C5EC32F0000E0101AD6F30EF37
:102A7C0017F00A0E0001FB19D8B447EF15F049EF17
:102A8C0015F052EF15F00B0EFB19D8A450EF15F002
:102A9C0052EF15F060EF15F0130EF525186E000EC1
:102AAC00F621196EFCC01AF0FBC01BF0A3EC29F048
:102ABC0030EF17F0120EFB19D8B467EF15F069EF71
:102ACC0015F072EF15F0130EFB19D8A470EF15F07A
:102ADC0072EF15F01DEF16F0120EF525186E000EA4
:102AEC00F621196EFCC01AF0FBC01BF0A3EC29F008
:102AFC0030EF17F00A0E0001FB19D8B488EF15F06F
:102B0C008AEF15F093EF15F00B0EFB19D8A491EF8B
:102B1C0015F093EF15F0A1EF15F0150EF525186EC5
:102B2C00000EF621196EFCC01AF0FBC01BF0A3ECD2
:102B3C0029F030EF17F0120EFB19D8B4A8EF15F0EE
:102B4C00AAEF15F0B3EF15F0130EFB19D8A4B1EFE3
:102B5C0015F0B3EF15F01DEF16F0140EF525186EE9
:102B6C00000EF621196EFCC01AF0FBC01BF0A3EC92
:102B7C0029F030EF17F00A0E0001FB19D8B4C9EF99
:102B8C0015F0CBEF15F0D4EF15F00B0EFB19D8A404
:102B9C00D2EF15F0D4EF15F0E2EF15F0170EF52586
:102BAC00186E000EF621196EFCC01AF0FBC01BF05B
:102BBC00A3EC29F030EF17F0120EFB19D8B4E9EFA3
:102BCC0015F0EBEF15F0F4EF15F0130EFB19D8A47C
:102BDC00F2EF15F0F4EF15F01DEF16F0160EF525CB
:102BEC00186E000EF621196EFCC01AF0FBC01BF01B
:102BFC00A3EC29F030EF17F00001FC510101DD6F5F
:102C0C00DE6BDE51000AD8B40EEF16F030EF17F081
:102C1C00DD51010AD8B43FEF15F0030AD8B480EFA8
:102C2C0015F0010AD8B4C1EF15F030EF17F030EF02
:102C3C0017F00A0E0001FB19D8B427EF16F029EF94
:102C4C0016F032EF16F00B0EFB19D8A430EF16F07D
:102C5C0032EF16F040EF16F0130EF525186E000E3D
:102C6C00F621196EFCC01AF0FBC01BF023EC2AF005
:102C7C0030EF17F0120EFB19D8B447EF16F049EFEE
:102C8C0016F052EF16F0130EFB19D8A450EF16F0F5
:102C9C0052EF16F030EF17F0120EF525186E000EED
:102CAC00F621196EFCC01AF0FBC01BF023EC2AF0C5
:102CBC0030EF17F00A0E0001FB19D8B468EF16F0CC
:102CCC006AEF16F073EF16F00B0EFB19D8A471EF28
:102CDC0016F073EF16F081EF16F0150EF525186E41
:102CEC00000EF621196EFCC01AF0FBC01BF023EC91
:102CFC002AF030EF17F0120EFB19D8B488EF16F04B
:102D0C008AEF16F093EF16F0130EFB19D8A491EF7F
:102D1C0016F093EF16F030EF17F0140EF525186E31
:102D2C00000EF621196EFCC01AF0FBC01BF023EC50
:102D3C002AF030EF17F00A0E0001FB19D8B4A9EFF6
:102D4C0016F0ABEF16F0B4EF16F00B0EFB19D8A47F
:102D5C00B2EF16F0B4EF16F0C2EF16F0170EF52521
:102D6C00186E000EF621196EFCC01AF0FBC01BF099
:102D7C0023EC2AF030EF17F0120EFB19D8B4C9EF80
:102D8C0016F0CBEF16F0D4EF16F0130EFB19D8A4F7
:102D9C00D2EF16F0D4EF16F030EF17F0160EF52533
:102DAC00186E000EF621196EFCC01AF0FBC01BF059
:102DBC0023EC2AF030EF17F00001FC510101DD6F1C
:102DCC00DE6BDE51000AD8B4EEEF16F030EF17F0E0
:102DDC00DD51010AD8B41FEF16F0030AD8B460EF26
:102DEC0016F0010AD8B4A1EF16F030EF17F0FC0E74
:102DFC00186E000E196EFB0E1A6E000E1B6E62EC36
:102E0C002DF030EF17F01CEC37F0C5EC32F030EF52
:102E1C0017F0F551DD6FDE6BDE51000AD8B419EFF7
:102E2C0017F030EF17F0DD51000AD8B438EF15F079
:102E3C00010AD8B402EF16F0030AD8B4E2EF16F088
:102E4C00010AD8B4FDEF16F0070AD8B409EF17F051
:102E5C0030EF17F012002650800B2F6E26502624D0
:102E6C00316E25AE3CEF17F03EEF17F03FEF17F049
:102E7C0031803150D8B445EF17F047EF17F05CEFC5
:102E8C0017F03128D8A44DEF17F04FEF17F057EF8C
:102E9C0017F0000E236E000E246E000E256E000E31
:102EAC00266E258E000E266E64EF17F0000E236E34
:102EBC00000E246E000E256E000E266E2A50800B1E
:102ECC00306E2F503018D8B46EEF17F070EF17F03B
:102EDC0071EF17F02F8C2A502A24306E29AE79EF1F
:102EEC0017F07BEF17F07CEF17F030803050D8B430
:102EFC0082EF17F084EF17F099EF17F03028D8A471
:102F0C008AEF17F08CEF17F094EF17F0000E276E86
:102F1C00000E286E000E296E000E2A6E298E000EF1
:102F2C002A6EA1EF17F0000E276E000E286E000E11
:102F3C00296E000E2A6E3150305CD8B0A8EF17F015
:102F4C00AAEF17F0D1EF17F02FACAFEF17F0B1EFEE
:102F5C0017F0B3EF17F0800E2F1A31C032F030C0DB
:102F6C0031F032C030F023C032F027C023F032C031
:102F7C0027F024C032F028C024F032C028F025C03D
:102F8C0032F029C025F032C029F026C032F02AC018
:102F9C0026F032C02AF0000E326E315030C02BF0C9
:102FAC002C6A2B5E000E2C5A2CBEE6EF17F02C5020
:102FBC0009E11A0E2B5CD8A0E6EF17F0E8EF17F03A
:102FCC001FEF18F02350241025102610D8A4F1EF71
:102FDC0017F0F4EF17F0010EF5EF17F0000E326E4C
:102FEC00000E236E000E246E000E256E000E266E53
:102FFC0030C031F028EF18F032A007EF18F009EFCD
:10300C0018F00FEF18F0D89032300109326E11EF32
:10301C0018F0D890323223A016EF18F018EF18F0F1
:10302C0019EF18F0328E2634263225322432233210
:10303C00312A3050315CD8A026EF18F028EF18F068
:10304C0002EF18F02FBC2DEF18F02FEF18F06FEFE8
:10305C0018F03150D8A435EF18F037EF18F041EFD5
:10306C0018F0000E236E000E246E000E256E000E5E
:10307C00266E90EF19F02750232628502422295031
:10308C0025222A50262226A04EEF18F050EF18F0D9
:10309C00FCEF18F032A055EF18F057EF18F05DEF79
:1030AC0018F0D89032300109326E5FEF18F0D890DA
:1030BC00323223A064EF18F066EF18F067EF18F0C7
:1030CC00328E26342632253224322332312AFCEF3A
:1030DC0018F02750235C2850245829502558265086
:1030EC00800A2B6E2A50800A2B58D8B080EF18F02B
:1030FC0082EF18F0ADEF18F02350275C2B6E2450A4
:10310C0028582C6E255029582D6E26502A582E6E74
:10311C00FF0E2B24236EFF0E2C20246EFF0E2D2071
:10312C00256EFF0E2E20266E800E2F1A326C32501A
:10313C00D8A4A3EF18F0A5EF18F0B5EF18F0010E16
:10314C002326000E242225222622B5EF18F0275024
:10315C00235E2850245A2950255A2A50265A235087
:10316C00241025102610D8A4BEEF18F0C0EF18F0CC
:10317C00F5EF18F03250D8A4C6EF18F0C8EF18F0DD
:10318C00F5EF18F0000E236E000E246E000E256E67
:10319C00000E266E90EF19F0D89023362436253683
:1031AC00263632AEDCEF18F0DEEF18F0DFEF18F059
:1031BC00238032A0E4EF18F0E6EF18F0EAEF18F0F5
:1031CC00D8803236ECEF18F0D89032363150D8B473
:1031DC00F2EF18F0F4EF18F0F5EF18F0310625AE19
:1031EC00FAEF18F0FCEF18F0D2EF18F0000E306E7A
:1031FC0032AE03EF19F005EF19F01DEF19F032C0E4
:10320C002BF07F0E2B16D8B40EEF19F010EF19F02F
:10321C0014EF19F0010E306E1DEF19F023A019EF09
:10322C0019F01BEF19F01DEF19F010EF19F03050D9
:10323C00D8B423EF19F025EF19F050EF19F0010E67
:10324C002326000E24222522262226A030EF19F058
:10325C0032EF19F050EF19F023C02BF024C02CF0F2
:10326C0025C02DF026C02EF02E342E322D322C32CD
:10327C002B322BC023F02CC024F02DC025F02EC0F7
:10328C0026F03128D8B44DEF19F04FEF19F050EF6C
:10329C0019F0312A3128D8B456EF19F058EF19F03B
:1032AC0060EF19F03150D8A45EEF19F060EF19F00F
:1032BC0072EF19F0000E236E000E246E000E256EB8
:1032CC00000E266E3150D8A46EEF19F070EF19F085
:1032DC0072EF19F0000E2F6E31A077EF19F079EF25
:1032EC0019F07CEF19F0258E7DEF19F0259ED89002
:1032FC003130266E2FAE85EF19F087EF19F088EF7D
:10330C0019F0268E23C023F024C024F025C025F00C
:10331C0026C026F01200000120EE18F0F551D92637
:10332C00F651DA22010EDB5009E10A0EDE5CD8A060
:10333C00A2EF19F0A4EF19F0ACEF19F020EE1AF08F
:10334C00F551D926F651DA22010EDF6EB9EC3AF0BE
:10335C000AC081F10BC082F10CC083F10DC084F165
:10336C0001017D51815DDD6F7E518259DE6F7F5190
:10337C008359DF6F80518459E06FE051DF11DE110A
:10338C0009E1C80EDD5DD8A0CEEF19F0D0EF19F031
:10339C0044EF1BF081C17DF182C17EF183C17FF1CD
:1033AC0084C180F189B4DDEF19F0E0EF19F0010E62
:1033BC00E1EF19F0000EFF0ADD6FDD47DD478950A4
:1033CC00DD19FB0BDD19896E0001FA51D8B4F1EF50
:1033DC0019F0F4EF19F0010EF5EF19F0000E0101E0
:1033EC00FC6FFCC10AF0010E9EEC2BF0F5C0D9FF6E
:1033FC00F6C0DAFF0AC0DEFF0BC0DEFF0CC0DEFF3A
:10340C000DC0DEFFFCC10AF0020E9EEC2BF0000199
:10341C0020EE04F0F551D926F651DA220AC0DEFF6F
:10342C000BC0DEFF0CC0DEFF0DC0DEFFFCC10AF0DE
:10343C00030E9EEC2BF0000120EE08F0F551D9267E
:10344C00F651DA220AC0DEFF0BC0DEFF0CC0DEFF35
:10345C000DC0DEFF74EC31F0000120EE0CF0F551E4
:10346C00D926F651DA2231C0DEFF32C0DDFF1EEC68
:10347C0031F0000120EE0EF0F551D926F651DA228A
:10348C0031C0DEFF32C0DDFFC8EC30F0000120EEB1
:10349C0010F0F551D926F651DA2231C0DEFF32C0D8
:1034AC00DDFFFA51D8A45DEF1AF05FEF1AF066EF6A
:1034BC001AF0000E0101F76F460EF66F6BEF1AF063
:1034CC00000E0101F76F430EF66FE10E0001E96F7C
:1034DC00010EEA6F980EEB6F060EEC6FF5C0D9FF7C
:1034EC00F6C0DAFFDECFEDF0DECFEEF0DECFEFF0A0
:1034FC00DECFF0F0F6C1F1F0F7C1F2F020EE0CF0F7
:10350C00F551D926F651DA22DECFF3F0DDCFF4F007
:10351C0043EC36F0010E136EE10E146E010E156EB7
:10352C00010E6FEC3AF00001FA51D8A4A0EF1AF09A
:10353C00A2EF1AF0A9EF1AF0000E0101F96F460E76
:10354C00F86FAEEF1AF0000E0101F96F430EF86F31
:10355C00E10E0001E96F010EEA6FAD0EEB6F060E86
:10356C00EC6F20EE04F0F551D926F651DA22DECFBD
:10357C00EDF0DECFEEF0DECFEFF0DECFF0F0F8C105
:10358C00F1F0F9C1F2F020EE0EF0F551D926F6511A
:10359C00DA22DECFF3F0DDCFF4F043EC36F0010E9F
:1035AC00136EE10E146E010E156E020E6FEC3AF0F6
:1035BC000001FA51D8A4E5EF1AF0E7EF1AF0EEEF9C
:1035CC001AF0000E0101FB6F460EFA6FF3EF1AF0C2
:1035DC00000E0101FB6F430EFA6FE10E0001E96F63
:1035EC00010EEA6FC20EEB6F060EEC6F20EE08F0C8
:1035FC00F551D926F651DA22DECFEDF0DECFEEF022
:10360C00DECFEFF0DECFF0F0FAC1F1F0FBC1F2F05B
:10361C0020EE10F0F551D926F651DA22DECFF3F078
:10362C00DDCFF4F043EC36F0010E136EE10E146EA8
:10363C00010E156E030E6FEC3AF0E10E0001E96F0E
:10364C00010EEA6F6C0EEB6F060EEC6F20EE22F0A3
:10365C00F551D926F651DA22DF500101DD6FDD512B
:10366C000001ED6FEE6B43EC36F0010E136EE10EC4
:10367C00146E010E156E040E6FEC3AF01EEC25F074
:10368C000101FD6FFD51D8A44EEF1BF050EF1BF064
:10369C006BEF1BF0000120EE22F0F551D926F6510C
:1036AC00DA22030EDE18D8A45EEF1BF060EF1BF0DD
:1036BC006BEF1BF020EE22F0F551D926F651DA22F1
:1036CC00000EDF6E010E0101AD6F0101FD05D8A4E6
:1036DC0072EF1BF074EF1BF080EF1BF00001FA513E
:1036EC00D8B47BEF1BF07EEF1BF0010E7FEF1BF0CD
:1036FC00000EFA6F040E0101FD19D8A488EF1BF01F
:10370C008AEF1BF0A8EF1BF0000120EE22F0F55120
:10371C00D926F651DA22DF2A20EE22F0F551D926ED
:10372C00F651DA22090EDF649EEF1BF0A0EF1BF0BE
:10373C00A8EF1BF020EE22F0F551D926F651DA2233
:10374C00000EDF6E12000D50800B166E0D500D2406
:10375C001C6E0CAEB4EF1BF0B6EF1BF0B7EF1BF00A
:10376C001C801C50D8B4BDEF1BF0BFEF1BF0D2EF88
:10377C001BF01C28D8A4C5EF1BF0C7EF1BF0CFEF34
:10378C001BF0000E0A6E000E0B6E000E0C6E000E7F
:10379C000D6E0C8EDAEF1BF0000E0A6E000E0B6E27
:1037AC00000E0C6E000E0D6E1150800B161A11507F
:1037BC001124176E10AEE5EF1BF0E7EF1BF0E8EFEE
:1037CC001BF017801750D8B4EEEF1BF0F0EF1BF086
:1037DC0003EF1CF01728D8A4F6EF1BF0F8EF1BF042
:1037EC0000EF1CF0000E0E6E000E0F6E000E106E31
:1037FC00000E116E108E0BEF1CF0000E0E6E000EF4
:10380C000F6E000E106E000E116E1750D8B411EF23
:10381C001CF013EF1CF01BEF1CF01C50D8A419EF7C
:10382C001CF01BEF1CF025EF1CF0000E0A6E000EB6
:10383C000B6E000E0C6E000E0D6EBDEF1DF01050D9
:10384C000A02F3CF21F0F4CF22F02150186E196A3E
:10385C001A6A1B6A22501D6E1E6A1F6A206A0F505C
:10386C000B02F3CF21F0F4CF22F021501826000EDA
:10387C0019221A221B2222501D26000E1E221F2244
:10388C0020220E500C02F3CF21F0F4CF22F0215065
:10389C001826000E19221A221B2222501D26000E59
:1038AC001E221F2220221AC01BF019C01AF018C0A9
:1038BC0019F0186A0E500B02F3CF21F0F4CF22F05E
:1038CC002150182622501922000E1A22000E1B22FB
:1038DC000F500A02F3CF21F0F4CF22F0215018261A
:1038EC0022501922000E1A22000E1B221AC01BF0A5
:1038FC0019C01AF018C019F0186A0E500A02F3CF4A
:10390C0021F0F4CF22F02150182622501922000E5B
:10391C001A22000E1B2210500B02F3CF21F0F4CF11
:10392C0022F021501D2622501E22000E1F22000EB6
:10393C0020220F500C02F3CF21F0F4CF22F02150B3
:10394C001D2622501E22000E1F22000E2022105077
:10395C000C02F3CF21F0F4CF22F02150126E225042
:10396C00136E146A156A14C015F013C014F012C04B
:10397C0013F0126A12501D2613501E2214501F22CF
:10398C001550202218C012F019C013F01AC014F0F0
:10399C001BC015F0190ED8EF1CF0D890153214324C
:1039AC0013321232E82ED3EF1CF012501D26135096
:1039BC001E2214501F22155020221AC01BF019C0B1
:1039CC001AF018C019F0186A17501CC012F0136ABC
:1039DC001226000E1322820E1224216EFF0E1320CB
:1039EC00226E0EEF1DF0D8901D361E361F36203677
:1039FC001BAE03EF1DF005EF1DF006EF1DF01D8053
:103A0C00D890183619361A361B362106D8A022063D
:103A1C001FAE13EF1DF015EF1DF0F9EF1CF0000EAB
:103A2C00176E1BAE1CEF1DF01EEF1DF042EF1DF0CC
:103A3C00FF0E1814126EFF0E1914136EFF0E1A14CB
:103A4C00146E7F0E1B14156E1250131014101510DB
:103A5C00D8B433EF1DF035EF1DF039EF1DF0010E2A
:103A6C00176E42EF1DF01DA03EEF1DF040EF1DF054
:103A7C0042EF1DF035EF1DF01750D8B448EF1DF094
:103A8C004AEF1DF06EEF1DF0010E1D26000E1E22DA
:103A9C001F22202220A055EF1DF057EF1DF06EEFD6
:103AAC001DF01DC012F01EC013F01FC014F020C07A
:103ABC0015F01534153214321332123212C01DF0B7
:103ACC0013C01EF014C01FF015C020F0214A222A8A
:103ADC0022BE79EF1DF0225008E12128D8A079EF01
:103AEC001DF07BEF1DF085EF1DF0000E1D6E000E1E
:103AFC001E6E800E1F6E7F0E206EB3EF1DF022BE69
:103B0C0092EF1DF0225006E12104D8B090EF1DF089
:103B1C0092EF1DF09EEF1DF0000E1D6E000E1E6E3E
:103B2C00000E1F6E000E206E000E166EB3EF1DF011
:103B3C0021C01CF0FF0E1D16FF0E1E167F0E1F1649
:103B4C00000E20161CA0ADEF1DF0AFEF1DF0B0EF76
:103B5C001DF01F8ED8901C30206E165020121DC0E8
:103B6C000AF01EC00BF01FC00CF020C00DF01200AC
:103B7C003E50800B0001646F3E503E246B6F3DAE97
:103B8C00CAEF1DF0CCEF1DF0CDEF1DF06B816B512A
:103B9C00D8B4D3EF1DF0D5EF1DF0EAEF1DF06B2973
:103BAC00D8A4DBEF1DF0DDEF1DF0E5EF1DF0000EEE
:103BBC003B6E000E3C6E000E3D6E000E3E6E3D8E5A
:103BCC00000E3E6EF2EF1DF0000E3B6E000E3C6ED2
:103BDC00000E3D6E000E3E6E4250800B641B425038
:103BEC0042246C6F41AEFDEF1DF0FFEF1DF000EFB6
:103BFC001EF06C816C51D8B406EF1EF008EF1EF06D
:103C0C001DEF1EF06C29D8A40EEF1EF010EF1EF065
:103C1C0018EF1EF0000E3F6E000E406E000E416E4F
:103C2C00000E426E418E000E426E25EF1EF0000E0D
:103C3C003F6E000E406E000E416E000E426E3F5005
:103C4C00401041104210D8A42EEF1EF030EF1EF0A1
:103C5C0048EF1EF0000E3B6E000E3C6E000E3D6EEB
:103C6C00000E3E6E800E3D127F0E3E1264513E12CF
:103C7C003BC03BF03CC03CF03DC03DF03EC03EF094
:103C8C008BEF1FF06B51D8A44EEF1EF050EF1EF0CF
:103C9C005AEF1EF0000E3B6E000E3C6E000E3D6E99
:103CAC00000E3E6E8BEF1FF06C516BC043F0446AFC
:103CBC00435E000E445A7F0E4324656F000E442071
:103CCC00666F3BC060F03CC061F03DC062F03EC02E
:103CDC0063F0000E3B6E000E3C6E000E3D6E000E4F
:103CEC003E6E000E676F000E686F000E696F000E5F
:103CFC006A6F000E6C6FBBEF1EF06C51D8B489EF7D
:103D0C001EF08BEF1EF0A2EF1EF0D89060376137DB
:103D1C0062376337D8903B363C363D363E366AAF19
:103D2C009AEF1EF09CEF1EF09DEF1EF03B80D8909A
:103D3C006737683769376A373F50605D4050615963
:103D4C004150625942506359D8A0AFEF1EF0B1EF09
:103D5C001EF0BAEF1EF06A8D3F50605F4050615B01
:103D6C004150625B4250635B6C2B190E6C65C1EF6A
:103D7C001EF0C3EF1EF083EF1EF060516111621153
:103D8C006311D8B4CCEF1EF0CEEF1EF0E6EF1EF0B0
:103D9C006781E6EF1EF0D8903B363C363D363E361A
:103DAC006AAFDBEF1EF0DDEF1EF0DEEF1EF03B80A6
:103DBC00D8906737683769376A376507D8A06607C0
:103DCC003DAEEBEF1EF0EDEF1EF0D1EF1EF0000E4E
:103DDC006C6F6AAFF4EF1EF0F6EF1EF01AEF1FF0E7
:103DEC00FF0E6715436EFF0E6815446EFF0E6915C6
:103DFC00456E7F0E6A15466E4350441045104610B2
:103E0C00D8B40BEF1FF00DEF1FF011EF1FF0010EE8
:103E1C006C6F1AEF1FF03BA016EF1FF018EF1FF09E
:103E2C001AEF1FF00DEF1FF06C51D8B420EF1FF0FC
:103E3C0022EF1FF046EF1FF0010E3B26000E3C2236
:103E4C003D223E223EA02DEF1FF02FEF1FF046EF3C
:103E5C001FF03BC043F03CC044F03DC045F03EC0B9
:103E6C0046F04634463245324432433243C03BF08E
:103E7C0044C03CF045C03DF046C03EF0654B662B5F
:103E8C0066BF51EF1FF0665108E16529D8A051EFCC
:103E9C001FF053EF1FF05EEF1FF0000E666F6569A9
:103EAC00000E3B6E000E3C6E000E3D6E000E3E6E24
:103EBC0066BF6BEF1FF0665106E16505D8B069EF80
:103ECC001FF06BEF1FF079EF1FF0000E666F000E06
:103EDC00656F000E3B6E000E3C6E000E3D6E000ECC
:103EEC003E6E000E646F65C06BF06BA180EF1FF02F
:103EFC0082EF1FF085EF1FF03D8E86EF1FF03D9E89
:103F0C00D8906B313E6E3CEF1EF0120027C03FF094
:103F1C0028C040F029C041F02AC042F02BC043F029
:103F2C002CC044F02DC045F02EC046F046BEA1EF8B
:103F3C001FF0A4EF1FF0010EA5EF1FF0000E3D6E59
:103F4C003E6A3D503E10D8B4AEEF1FF0B0EF1FF0FC
:103F5C00C0EF1FF0461E451E441E431E421E411E4E
:103F6C00401E3F6C000E402241224222432244223A
:103F7C00452246224EBEC5EF1FF0C7EF1FF0C8EF1B
:103F8C001FF04F924EBED5EF1FF04E5006E14D0480
:103F9C00D8B0D3EF1FF0D5EF1FF0DBEF1FF0000E02
:103FAC003A6E010E396EDFEF1FF04DC039F04EC086
:103FBC003AF0F7C03BF0F8C03CF03D503E10D8A4AE
:103FCC00EAEF1FF0ECEF1FF0F3EF1FF04FA4F1EF4F
:103FDC001FF0F3EF1FF0F6EF1FF03B06D8A03C06E6
:103FEC00000E486E4F0E476E000E02019F6F7BEF66
:103FFC0020F04706D8A04806500E4724D96E020E72
:10400C004820DA6E3FC00AF040C00BF041C00CF003
:10401C0042C00DF043C00EF044C00FF045C010F08C
:10402C0046C011F00A0E126E000E136E000E146EC6
:10403C00000E156E000E166E000E176E000E186E2A
:10404C00000E196E6CEC24F00AC02FF00BC030F08F
:10405C000CC031F00DC032F00EC033F00FC034F094
:10406C0010C035F011C036F02FC01CF031C01DF05F
:10407C00F4EC37F01C50300FDF6E3906D8A03A063E
:10408C003B06D8A03C063FC00AF040C00BF041C034
:10409C000CF042C00DF043C00EF044C00FF045C010
:1040AC0010F046C011F00A0E126E000E136E000EC8
:1040BC00146E000E156E000E166E000E176E000EAE
:1040CC00186E000E196EA8EC23F00AC03FF00BC05E
:1040DC0040F00CC041F00DC042F00EC043F00FC0D8
:1040EC0044F010C045F011C046F048BE86EF20F0F9
:1040FC00485008E14704D8A086EF20F088EF20F064
:10410C00B8EF20F03F5040104110421043104410C3
:10411C0045104610D8A495EF20F097EF20F0FFEF54
:10412C001FF03ABEA4EF20F03A5006E13904D8B0A3
:10413C00A2EF20F0A4EF20F0FFEF1FF03CBEAFEF9A
:10414C0020F03C5008E13B04D8A0AFEF20F0B1EFD9
:10415C0020F0B8EF20F04FB2B6EF20F0B8EF20F01F
:10416C00FFEF1FF03D503E10D8A4BFEF20F0C1EF81
:10417C0020F0C8EF20F04FA4C6EF20F0C8EF20F0DD
:10418C00E6EF20F04706D8A048063D503E10D8A4D4
:10419C00D2EF20F0D4EF20F0DAEF20F0000E386EE2
:1041AC002B0E376EDEEF20F0000E386E2D0E376EB4
:1041BC00500E4724D96E020E4820DA6E37C0DFFF4E
:1041CC0025C01AF026C01BF0500E47241C6E020EA0
:1041DC0048201D6E3BC01EF03CC01FF05AEC2FF067
:1041EC001AC025F01BC026F0120059C177F05AC135
:1041FC0078F05BC179F05CC17AF06DC077F06EC07D
:10420C0078F06FC079F070C07AF0810E476EFF0EB7
:10421C00486E77C049F078C04AF079C04BF07AC04C
:10422C004CF0180E1FEF21F0D8904C324B324A3222
:10423C004932E82E1AEF21F0495047240001756FDE
:10424C00000E4820766F76BF35EF21F0765109E1EC
:10425C00170E755DD8A035EF21F037EF21F041EF47
:10426C0021F06DC06DF06EC06EF06FC06FF070C05D
:10427C0070F005EF22F076BF46EF21F048EF21F009
:10428C00B9EF21F075C047F0FF0E486EFF0E496E76
:10429C007F0E4A6E000E4B6E476657EF21F05FEFB4
:1042AC0021F04B344B324A3249324832472E52EFCE
:1042BC0021F048C071F049C072F04AC073F04BC095
:1042CC0074F0000171517715476E72517815486E74
:1042DC0073517915496E74517A154A6E47504810CE
:1042EC0049104A10D8A47DEF21F07FEF21F081EF27
:1042FC0021F037EF21F077C047F078C048F079C053
:10430C0049F07AC04AF0200E91EF21F0D8904A3251
:10431C00493248324732E82E8CEF21F04750481092
:10432C0049104A10D8B49DEF21F09FEF21F0A7EF70
:10433C0021F071517727725178237351792374517D
:10434C007A23711D476E721D486E731D496E741D64
:10435C004A6E4750771748507817495079174A508A
:10436C007A17FDEF21F077C047F078C048F079C09C
:10437C0049F07AC04AF0200EC9EF21F0D8904A32A9
:10438C00493248324732E82EC4EF21F047504810EA
:10439C0049104A10D8A4D5EF21F0D7EF21F0E1EF66
:1043AC0021F0000E776F000E786F000E796F000E03
:1043BC007A6FFDEF21F0D8907735476E7835486EDF
:1043CC007935496E7A354A6E4750481049104A1073
:1043DC00D8B4F3EF21F0F5EF21F0FDEF21F0000E52
:1043EC00776F000E786F800E796FBF0E7A6F77C083
:1043FC006DF078C06EF079C06FF07AC070F012007A
:10440C00126E1250D8B40DEF22F00FEF22F031EFF4
:10441C0022F00DBE16EF22F014EF22F031EF22F055
:10442C000AC00EF00BC00FF00CC010F00DC011F054
:10443C000E1E0F1E101E111E0E2A000E0F22102211
:10444C0011220EC014F00FC015F010C016F011C0E0
:10445C0017F039EF22F00AC014F00BC015F00CC0A5
:10446C0016F00DC017F00A500B100C100D10D8A43C
:10447C0042EF22F044EF22F04EEF22F0000E0A6ED3
:10448C00000E0B6E000E0C6E000E0D6EDFEF22F0A8
:10449C00960E136E58EF22F0132AD890173216325C
:1044AC0015321432000E14140E6E000E15140F6E0D
:1044BC00000E1614106EFE0E1714116E0E500F1007
:1044CC0010101110D8A46DEF22F06FEF22F052EF04
:1044DC0022F07DEF22F0132A010E1426000E152275
:1044EC0016221722D8901732163215321432000EBB
:1044FC0014140E6E000E15140F6E000E1614106EA2
:10450C00FF0E1714116E0E500F1010101110D8A4AE
:10451C0092EF22F094EF22F071EF22F09CEF22F058
:10452C001306D890143615361636173616BEA1EF6C
:10453C0022F0A3EF22F0ABEF22F0020E1360A9EFF2
:10454C0022F0ABEF22F096EF22F013B0B0EF22F096
:10455C00B2EF22F0B3EF22F0169ED890133213C0B4
:10456C000EF00F6A106A116A0EC011F0106A0F6A11
:10457C000E6A0E5014120F501512105016121150C4
:10458C0017121250D8B4CDEF22F0CFEF22F0D7EFA4
:10459C0022F00DBED6EF22F0D4EF22F0D7EF22F0AE
:1045AC00178E14C00AF015C00BF016C00CF017C013
:1045BC000DF01200000E1F6E000E1E6E000E186E17
:1045CC00000E176EECEF22F0114A122A010E1D6E2E
:1045DC0011C0F6FF12C0F7FF0800F550200AD8B43E
:1045EC00FAEF22F0FCEF22F019EF23F0F70E136E26
:1045FC00FF0E146E11C0F6FF12C0F7FF0800F55045
:10460C00156E166A1350152614501622165009E111
:10461C00050E155CD8A015EF23F017EF23F019EF5A
:10462C0023F0000E1D6E1DC019F01A6A19501A10D5
:10463C00D8A423EF23F025EF23F0EAEF22F02FEF9D
:10464C0023F0000E186E010E176E114A122A64EF39
:10465C0023F011C0F6FF12C0F7FF0800F550136EDF
:10466C00146A1450000AD8B43EEF23F064EF23F020
:10467C0013502B0AD8B42BEF23F0060AD8B427EF2B
:10468C0023F064EF23F01EC00AF01FC00BF0000EE5
:10469C000D6E0A0E0C6E2AEC3AF011C0F6FF12C029
:1046AC00F7FF0800F5500A5E000E0B5A300E0A2474
:1046BC001E6E000E0B201F6E2BEF23F0D00E136E10
:1046CC00FF0E146E11C0F6FF12C0F7FF0800F55074
:1046DC00156E166A135015261450162216500AE140
:1046EC000A0E155CD8A07DEF23F080EF23F0010EAD
:1046FC0081EF23F0000E1B6E1C6A1B501C10D8A4FB
:10470C008AEF23F08CEF23F049EF23F017501810A9
:10471C00D8A493EF23F095EF23F0A3EF23F01EC062
:10472C0013F01FC014F0131E141E134A142A13C0C6
:10473C0011F014C012F0A7EF23F01EC011F01FC02F
:10474C0012F01200000E1B6E19BEB1EF23F0AFEF8A
:10475C0023F0C3EF23F0191E181E171E161E151E6C
:10476C00141E131E126C000E132214221522162274
:10477C00172218221922010E1B6E11BECAEF23F04C
:10478C00C8EF23F0DCEF23F0111E101E0F1E0E1EBF
:10479C000D1E0C1E0B1E0A6C000E0B220C220D2281
:1047AC000E220F2210221122010E1B1A20EE1CF0D9
:1047BC00070EDE6AE806FDE21250131014101510F5
:1047CC001610171018101910D8B4EFEF23F0F1EFE2
:1047DC0023F043EF24F0010E1A6EFFEF23F0D89074
:1047EC001236133614361536163617361836193661
:1047FC001A2A19AE04EF24F006EF24F0F5EF23F09B
:10480C00D8901C361D361E361F36203621362236E1
:10481C00233612500A5C13500B5814500C58155078
:10482C000D5816500E5817500F5818501058195044
:10483C001158D8A024EF24F026EF24F037EF24F001
:10484C0012500A5E13500B5A14500C5A15500D5A34
:10485C0016500E5A17500F5A1850105A1950115A08
:10486C001C80D89019321832173216321532143285
:10487C00133212321A2E06EF24F01B50D8B449EF23
:10488C0024F04BEF24F05BEF24F0231E221E211E9C
:10489C00201E1F1E1E1E1D1E1C6C000E1D221E2205
:1048AC001F2220222122222223221CC00AF01DC0FA
:1048BC000BF01EC00CF01FC00DF020C00EF021C07C
:1048CC000FF022C010F023C011F01200000E1B6E6E
:1048DC0011BE75EF24F073EF24F087EF24F0111E56
:1048EC00101E0F1E0E1E0D1E0C1E0B1E0A6C000E33
:1048FC000B220C220D220E220F2210221122010E4D
:10490C001B6E19BE8EEF24F08CEF24F09EEF24F07A
:10491C00191E181E171E161E151E141E131E126CA1
:10492C00000E1322142215221622172218221922E5
:10493C0012501310141015101610171018101910FF
:10494C00D8B4ABEF24F0ADEF24F0F5EF24F0010E6A
:10495C001A6EBBEF24F0D890123613361436153677
:10496C0016361736183619361A2A19AEC0EF24F037
:10497C00C2EF24F0B1EF24F012500A5C13500B5824
:10498C0014500C5815500D5816500E5817500F58EF
:10499C001850105819501158D8A0D7EF24F0D9EF4F
:1049AC0024F0E9EF24F012500A5E13500B5A145005
:1049BC000C5A15500D5A16500E5A17500F5A1850B3
:1049CC00105A1950115AD89019321832173216320F
:1049DC0015321432133212321A2EC2EF24F01B503D
:1049EC00D8B4FBEF24F0FDEF24F00DEF25F0111EF1
:1049FC00101E0F1E0E1E0D1E0C1E0B1E0A6C000E22
:104A0C000B220C220D220E220F22102211220AC080
:104A1C000AF00BC00BF00CC00CF00DC00DF00EC06A
:104A2C000EF00FC00FF010C010F011C011F01200FA
:104A3C0082B423EF25F027EF25F00E6A0E2A28EF1B
:104A4C0025F00E6A82B22DEF25F031EF25F0020E23
:104A5C000F6E32EF25F00F6A82B037EF25F03BEF87
:104A6C0025F0106A102A3CEF25F0106AD890103609
:104A7C00D89010340F100E10166E0101FE5116183E
:104A8C00D8B44BEF25F04DEF25F0CDEF25F0B9EC78
:104A9C003AF00AC012F00BC013F00CC014F00DC0A9
:104AAC0015F001017151125C0E6E725113580F6E9C
:104ABC0073511458106E74511558116E115010100A
:104ACC000F1009E11E0E0E5CD8A06FEF25F071EFF0
:104ADC0025F0CDEF25F016C0FEF112C071F113C018
:104AEC0072F114C073F115C074F1030E1618D8A42A
:104AFC0082EF25F084EF25F087EF25F0000ECEEF46
:104B0C0025F0050E1618D8A48EEF25F090EF25F0A1
:104B1C0093EF25F0010ECEEF25F01604D8A499EFF3
:104B2C0025F09BEF25F09EEF25F0020ECEEF25F041
:104B3C00060E1618D8A4A5EF25F0A7EF25F0AAEFBE
:104B4C0025F0030ECEEF25F0020E1618D8A4B1EF07
:104B5C0025F0B3EF25F0B6EF25F0040ECEEF25F0DF
:104B6C00040E1618D8A4BDEF25F0BFEF25F0C2EF48
:104B7C0025F0050ECEEF25F01650D8A4C8EF25F081
:104B8C00CAEF25F0CDEF25F0060ECEEF25F0070E7F
:104B9C001200B9EC3AF00AC012F00BC013F00CC0C2
:104BAC0014F00DC015F001016551125C0E6E6651CA
:104BBC0013580F6E67511458106E68511558116EBA
:104BCC00115010100F1009E1640E0E5CD8A0F1EF1B
:104BDC0025F0F3EF25F06DEF26F012C065F113C050
:104BEC0066F114C067F115C068F1830EC216C2825B
:104BFC00C2B203EF26F005EF26F0FEEF25F0C3500E
:104C0C00C4CF0EF00F6A0EC00FF00E6A0E12000E1B
:104C1C000F120101A251020D3C0EF324D96E020EAB
:104C2C00F420DA6E0EC0DEFF0FC0DDFFC250830B26
:104C3C000409C26EC282C2B226EF26F028EF26F01B
:104C4C0021EF26F0C350C4CF0EF00F6A0EC00FF048
:104C5C000E6A0E12000E0F120101A251020D280E47
:104C6C00F324D96E020EF420DA6E0EC0DEFF0FC0F4
:104C7C00DDFFC250830B0C09C26EC282C2B249EF77
:104C8C0026F04BEF26F044EF26F0C350C4CF0EF0C5
:104C9C000F6A0EC00FF00E6A0E12000E0F120101F9
:104CAC00A251020D140EF324D96E020EF420DA6E0A
:104CBC000EC0DEFF0FC0DDFFA22B090EA26569EF4F
:104CCC0026F06BEF26F06DEF26F0000EA26F1200AF
:104CDC00B9EC3AF00AC06DF10BC06EF10CC06FF17B
:104CEC000DC070F1010169516D5D496E6A516E59CB
:104CFC004A6E6B516F594B6E6C5170594C6E4C50D7
:104D0C004B104A1009E1FA0E495CD8A090EF26F03E
:104D1C0092EF26F003EF27F06DC169F16EC16AF1D5
:104D2C006FC16BF170C16CF18B4B8C2B8C5107E10B
:104D3C00F10E8B5DD8B0A5EF26F0A7EF26F0E3EFD0
:104D4C0026F0010E00016D6FC40E6E6F010E6F6FB9
:104D5C00010E37EC11F0010E00016D6FBC0E6E6F81
:104D6C00010E6F6F020E37EC11F0010E00016D6F2A
:104D7C00B40E6E6F010E6F6F030E37EC11F0000E58
:104D8C0000016D6FC00E6E6F010E6F6F010E37EC70
:104D9C0011F0000E00016D6FB80E6E6F010E6F6F8B
:104DAC00020E37EC11F0000E00016D6FB00E6E6F3D
:104DBC00010E6F6F030E37EC11F0F10E01018B1920
:104DCC008C11D8A4ECEF26F0EEEF26F0F0EF26F0E5
:104DDC00E7EC3BF001018C5109E1F50E8B5DD8A09D
:104DEC00FAEF26F0FCEF26F003EF27F0E5EC3BF0B2
:104DFC00000E01018C6F000E8B6F12008A9E8A9C34
:104E0C008998898A000E0101C06F000EC16F000ED7
:104E1C00C26F000EC36F000EB86F000EB96F000E9C
:104E2C00BA6F000EBB6F000EB06F000EB16F000EAC
:104E3C00B26F000EB36F000EC46F000EC56F000E84
:104E4C00C66F000EC76F000EBC6F000EBD6F000E5C
:104E5C00BE6F000EBF6F000EB46F000EB56F000E6C
:104E6C00B66F000EB76F000EAB6F000EAA6F000E80
:104E7C00A96F000EA86F000EA76F000EA66F000E94
:104E8C004A6E000E496E010E00016D6FC40E6E6FFE
:104E9C00010E6F6F010E37EC11F0010E00016D6FFA
:104EAC00BC0E6E6F010E6F6F020E37EC11F0010E1F
:104EBC0000016D6FB40E6E6F010E6F6F030E37EC49
:104ECC0011F0000E00016D6FC00E6E6F010E6F6F52
:104EDC00010E37EC11F0000E00016D6FB80E6E6F05
:104EEC00010E6F6F020E37EC11F0000E00016D6FAA
:104EFC00B00E6E6F010E6F6F030E37EC11F0494A56
:104F0C004A2A4ABE93EF27F04A5009E1190E495C30
:104F1C00D8A093EF27F095EF27F049EF27F0120078
:104F2C00AA0E0201E16F000EE26F000EE36F000E9D
:104F3C00E46F52C1E5F253C1E6F2000EE76FCDC14A
:104F4C00E8F2CEC1E9F2CFC1EAF2D0C1EBF2C8C1AE
:104F5C00ECF2C9C1EDF2CAC1EEF2CBC1EFF2CCC199
:104F6C00F0F2000EF16F000EF26F9EC1F3F2000E24
:104F7C00F46F550EF56FE10E0A6E020E0B6E150EE8
:104F8C000C6E75EC39F00F6E060E0101246F020EDB
:104F9C00256FAA0E266F000E276F000E286F000ECD
:104FAC00296F52C12AF153C12BF1000E2C6FCDC1C8
:104FBC002DF1CEC12EF1CFC12FF1D0C130F1C8C12E
:104FCC0031F1C9C132F1CAC133F1CBC134F1CCC119
:104FDC0035F1000E366F000E376F9EC138F1000EA2
:104FEC00396F550E3A6F030E3B6F0FC03CF1000E3C
:104FFC00116E000E106E240E1024D96E010E1120AD
:10500C00DA6EDF5026EC3BF0104A112A11BE18EF75
:10501C0028F0115009E1190E105CD8A018EF28F0F7
:10502C001AEF28F001EF28F01200253426342C6EEC
:10503C002C50D8A424EF28F026EF28F030EF28F0DD
:10504C00000E236E000E246E000E256E000E266ED2
:10505C009DEF28F023C027F024C028F025C029F0AC
:10506C0026C02AF0200E40EF28F0D8902A322932A0
:10507C0028322732E82E3BEF28F027502B6E258E56
:10508C00FF0E2316FF0E2416FF0E2516000E2616F5
:10509C00960E2C5E2CBE57EF28F055EF28F06DEFD6
:1050AC0028F02C50800A970FD8B05FEF28F061EFF2
:1050BC0028F063EF28F026EF28F0D890263225321E
:1050CC00243223322C3E63EF28F085EF28F01F0E9C
:1050DC002C6473EF28F075EF28F07DEF28F026EFA5
:1050EC0028F0D89023362436253626362C062C501C
:1050FC00D8A483EF28F085EF28F077EF28F02B5019
:10510C00D8B48BEF28F08DEF28F095EF28F0261E01
:10511C00251E241E236C000E24222522262223C0A9
:10512C0023F024C024F025C025F026C026F0120060
:10513C00226E000E236E000E246E000E256E000EE5
:10514C00266E1AC029F01BC02AF01CC027F01DC007
:10515C0028F0CDEF28F023C01EF024C01FF025C08E
:10516C0020F026C021F0232A000E242225222622FC
:10517C00215020101F1009E11F0E1E5CD8A0C9EF92
:10518C0028F0CBEF28F0CDEF28F020EF29F02250BB
:10519C0010EC33F00009D8B4D6EF28F0D8EF28F093
:1051AC00B1EF28F0A80E0F6E700E106E270E116E58
:1051BC00000E126E03EC3BF0190E0A6E000E0B6E15
:1051CC00000E0D6E010E0C6E3DEC3AF0000E0F6EE3
:1051DC00000E106E000E116E000E126EF7EC3AF00F
:1051EC00B0EC3BF016EF29F023C01EF024C01FF0EA
:1051FC0025C020F026C021F0232A000E24222522CF
:10520C002622215020101F1009E11F0E1E5CD8A071
:10521C0012EF29F014EF29F016EF29F0CBEF28F05C
:10522C00FEEC39F0E806D8B41EEF29F020EF29F097
:10523C00FAEF28F01200000E23142B6E000E24142B
:10524C002C6E800E25142D6E7F0E26142E6E2B5078
:10525C002C102D102E10D8A436EF29F038EF29F091
:10526C0040EF29F0000E236E000E246E000E256E0A
:10527C00000E266E000E27142B6E000E28142C6EBA
:10528C00800E29142D6E7F0E2A142E6E2B502C108E
:10529C002D102E10D8A455EF29F057EF29F05FEF01
:1052AC0029F0000E276E000E286E000E296E000EDF
:1052BC002A6E26AE64EF29F066EF29F06FEF29F025
:1052CC00236C241ED8B0242A251ED8B0252A800E83
:1052DC0026562AAE74EF29F076EF29F07FEF29F0ED
:1052EC00276C281ED8B0282A291ED8B0292A800E4F
:1052FC002A56000E231A000E241A000E251A800EB0
:10530C00261A000E271A000E281A000E291A800ED3
:10531C002A1A2750235C28502458295025582A50E3
:10532C002658D8B09CEF29F09EEF29F0A1EF29F078
:10533C00D890A2EF29F0D8801200000E0D6E0A0E44
:10534C000C6E18C0D9FF19C0DAFFDF501C6E1C5050
:10535C000A6E0B6AF8EC2EF00AC012F00BC013F0B8
:10536C00000E156E0A0E146E19EC30F012C01DF002
:10537C0013C01EF018C0D9FF19C0DAFFDF501C6E25
:10538C001C50126E136A000E156E0A0E146E19EC78
:10539C0030F012C01FF013C020F00A0E1B18D8B446
:1053AC00DAEF29F0DCEF29F0E5EF29F0120E1B18EB
:1053BC00D8A4E3EF29F0E5EF29F0F7EF29F0010E7F
:1053CC001D24126E000E1E20136E000E156E0A0E9A
:1053DC00146E19EC30F012C01DF013C01EF019EF52
:1053EC002AF00B0E1B18D8B4FEEF29F000EF2AF0B0
:1053FC0009EF2AF0130E1B18D8A407EF2AF009EFB7
:10540C002AF019EF2AF0010E1F24126E000E202034
:10541C00136E000E156E0A0E146E19EC30F012C0DD
:10542C001FF013C020F01D500A0DF3501F2418C09C
:10543C00D9FF19C0DAFFDF6E1200000E0D6E0A0ED6
:10544C000C6E18C0D9FF19C0DAFFDF501C6E1C504F
:10545C000A6E0B6AF8EC2EF00AC012F00BC013F0B7
:10546C00000E156E0A0E146E19EC30F012C01DF001
:10547C0013C01EF018C0D9FF19C0DAFFDF501C6E24
:10548C001C50126E136A000E156E0A0E146E19EC77
:10549C0030F012C01FF013C020F00A0E1B18D8B445
:1054AC005AEF2AF05CEF2AF065EF2AF0120E1B1867
:1054BC00D8A463EF2AF065EF2AF077EF2AF0090EF3
:1054CC001D24126E000E1E20136E000E156E0A0E99
:1054DC00146E19EC30F012C01DF013C01EF099EFD1
:1054EC002AF00B0E1B18D8B47EEF2AF080EF2AF0AE
:1054FC0089EF2AF0130E1B18D8A487EF2AF089EF36
:10550C002AF099EF2AF0090E1F24126E000E2020AB
:10551C00136E000E156E0A0E146E19EC30F012C0DC
:10552C001FF013C020F01D500A0DF3501F2418C09B
:10553C00D9FF19C0DAFFDF6E12005DC114F05EC135
:10554C0015F05FC116F060C117F00AC014F00BC063
:10555C0015F00CC016F00DC017F014C00EF015C0ED
:10556C000FF016C010F017C011F0180EC3EF2AF090
:10557C00D890113210320F320E32E82EBEEF2AF0D4
:10558C000E50126E136A12501310D8A4D0EF2AF0DA
:10559C00D2EF2AF0F2EF2AF0D89014340E6E1534B4
:1055AC000F6E1634106E1734116E0E500F10101043
:1055BC001110D8A4E4EF2AF0E6EF2AF0ECEF2AF071
:1055CC00000E0B6E020E0A6E21EF2BF0000E0B6E0E
:1055DC00030E0A6E21EF2BF012281310D8A4F9EF4A
:1055EC002AF0FBEF2AF01DEF2BF014C00EF015C0C3
:1055FC000FF016C010F017C011F0090ED8900E362F
:10560C000F3610361136E82E04EF2BF00E500F101B
:10561C0010101110D8B415EF2BF018EF2BF0010E61
:10562C0019EF2BF0000E0A6E0B6A21EF2BF0000E17
:10563C000B6E040E0A6E12000F6E0F04D8A429EF25
:10564C002BF02BEF2BF03CEF2BF00D507F0F126E4D
:10565C0012380F0B106E12500F0B116E10508DEC88
:10566C003AF011508DEC3AF08AEF2BF0020E0F1835
:10567C00D8A443EF2BF045EF2BF056EF2BF00D5049
:10568C00BF0F126E12380F0B106E12500F0B116EE3
:10569C0010508DEC3AF011508DEC3AF08AEF2BF063
:1056AC00030E0F18D8A45DEF2BF05FEF2BF070EF0B
:1056BC002BF00D50930F126E12380F0B106E125000
:1056CC000F0B116E10508DEC3AF011508DEC3AF02E
:1056DC008AEF2BF0040E0F18D8A477EF2BF079EF8C
:1056EC002BF08AEF2BF00D50D30F126E12380F0BDC
:1056FC00106E12500F0B116E10508DEC3AF01150C1
:10570C008DEC3AF08AEF2BF0C00E8DEC3AF00E5087
:10571C00D8B493EF2BF095EF2BF09AEF2BF00E0EF5
:10572C008DEC3AF09DEF2BF00C0E8DEC3AF0120054
:10573C000E6E0E04D8A4A5EF2BF0A7EF2BF0C3EF41
:10574C002BF00A50D8A4ADEF2BF0AFEF2BF0B9EF44
:10575C002BF0C0C10AF0C1C10BF0C2C10CF0C3C127
:10576C000DF015EF2CF0C4C10AF0C5C10BF0C6C189
:10577C000CF0C7C10DF015EF2CF0020E0E18D8A4CA
:10578C00CAEF2BF0CCEF2BF0E8EF2BF00A50D8A49B
:10579C00D2EF2BF0D4EF2BF0DEEF2BF0B8C10AF0E8
:1057AC00B9C10BF0BAC10CF0BBC10DF015EF2CF068
:1057BC00BCC10AF0BDC10BF0BEC10CF0BFC10DF0F5
:1057CC0015EF2CF0030E0E18D8A4EFEF2BF0F1EF21
:1057DC002BF00DEF2CF00A50D8A4F7EF2BF0F9EFCB
:1057EC002BF003EF2CF0B0C10AF0B1C10BF0B2C139
:1057FC000CF0B3C10DF015EF2CF0B4C10AF0B5C12B
:10580C000BF0B6C10CF0B7C10DF015EF2CF0000E7B
:10581C000A6E000E0B6E000E0C6E000E0D6E12005A
:10582C00000E15EC36F0020E0E6E040E0D6EBA0E56
:10583C00E82EFED70D2EFCD70E2EFAD700D0030E75
:10584C008DEC3AF0410E0D6EEE0EE82EFED70D2EBD
:10585C00FCD700D0030E8DEC3AF08F0E0D6EDA0EE5
:10586C00E82EFED70D2EFCD700D0030E8DEC3AF0AF
:10587C00020E8DEC3AF0410E0D6EEE0EE82EFED7B8
:10588C000D2EFCD700D0020E8DEC3AF0410E0D6EB1
:10589C00EE0EE82EFED70D2EFCD700D0080E8DECA8
:1058AC003AF0410E0D6EEE0EE82EFED70D2EFCD703
:1058BC0000D0000E8DEC3AF0410E0D6EEE0EE82E7F
:1058CC00FED70D2EFCD700D00C0E8DEC3AF0410E0D
:1058DC000D6EEE0EE82EFED70D2EFCD700D0000E6E
:1058EC008DEC3AF0410E0D6EEE0EE82EFED70D2E1D
:1058FC00FCD700D0060E8DEC3AF0410E0D6EEE0E7C
:10590C00E82EFED70D2EFCD700D012000AC011F0E5
:10591C000BC012F00CC013F00DC014F00E06D8A082
:10592C000F060E2806E10F28D8A49FEF2CF0A1EF4C
:10593C002CF0AEEF2CF0000E0B6E000E0A6EF6EF94
:10594C002CF0114A122A134A142A0E06D8A00F065C
:10595C0011C0D9FF12C0DAFFDF50D8B4B8EF2CF069
:10596C00BAEF2CF0E5EF2CF013C0F6FF14C0F7FFE4
:10597C000800F5500009D8B4C6EF2CF0C8EF2CF095
:10598C00E5EF2CF00E500F10D8B4CFEF2CF0D1EF78
:10599C002CF0E5EF2CF011C0D9FF12C0DAFFDF506C
:1059AC00106E13C0F6FF14C0F7FF0800F550101866
:1059BC00D8B4E3EF2CF0E5EF2CF0A7EF2CF011C0EE
:1059CC00D9FF12C0DAFFDF50106E13C0F6FF14C0FF
:1059DC00F7FF0800F550105C0A6E0B6AD8A00B0696
:1059EC0012000001F751F811D8A4FFEF2CF001EFD1
:1059FC002DF007EF2DF0F7C019F0F8C01AF00DEFED
:105A0C002DF0FF0EF725196EFF0EF8211A6E4FA020
:105A1C0012EF2DF014EF2DF01DEF2DF015C00AF044
:105A2C000B6A13C00CF014C00DF0CCEC2DF01ABEA8
:105A3C0022EF2DF024EF2DF026EF2DF02AEF2DF094
:105A4C00000E1A6E000E196E000E186E000E176EF8
:105A5C003CEF2DF0000E0B6E200E0A6E13C00CF0F6
:105A6C0014C00DF0CCEC2DF0174A182A1950175C05
:105A7C001850800A166E1A50800A1658D8A049EF92
:105A8C002DF04BEF2DF030EF2DF04FB050EF2DF0FF
:105A9C0052EF2DF05BEF2DF015C00AF00B6A13C01E
:105AAC000CF014C00DF0CCEC2DF0010E1724136E7D
:105ABC00000E1820146E12001AC0D9FF1BC0DAFF9A
:105ACC000A0EDE18D8A46DEF2DF06FEF2DF077EFE6
:105ADC002DF01AC0D9FF1BC0DAFF0B0EDF6ECBEF17
:105AEC002DF01AC0D9FF1BC0DAFF0B0EDE18D8A49C
:105AFC0082EF2DF084EF2DF08CEF2DF01AC0D9FF32
:105B0C001BC0DAFF120EDF6ECBEF2DF01AC0D9FFDF
:105B1C001BC0DAFF120EDE18D8A497EF2DF099EF08
:105B2C002DF0A1EF2DF01AC0D9FF1BC0DAFF130E18
:105B3C00DF6ECBEF2DF01AC0D9FF1BC0DAFF130EAE
:105B4C00DE18D8A4ACEF2DF0AEEF2DF0CBEF2DF08E
:105B5C0018C0D9FF19C0DAFFDF501C6E1C50126E32
:105B6C00136A000E156E030E146E19EC30F0122829
:105B7C0018C0D9FF19C0DAFFDF6E1AC0D9FF1BC0DD
:105B8C00DAFF0A0EDF6ECBEF2DF012000C500D1069
:105B9C00D8B4D3EF2DF0D5EF2DF0DEEF2DF00C5067
:105BAC000D10D8A4DCEF2DF0DEEF2DF0E3EF2DF08F
:105BBC000A5001EC3CF030EF2EF020EE04F00C50CB
:105BCC00D9260D50DA22DE50DE10D8B4F0EF2DF0CD
:105BDC00F2EF2DF00DEF2EF020EE04F00C50D92644
:105BEC000D50DA2210EE02F00C50E1260D50E2229C
:105BFC00DE50E65CE650800A126EDE50800A1258C7
:105C0C00D8B00BEF2EF00DEF2EF030EF2EF020EE83
:105C1C0002F00C50D9260D50DA22DECF0EF0DDCF7B
:105C2C000FF00CC0D9FF0DC0DAFFDECF10F0DDCFC6
:105C3C0011F00E501024D96E0F501120DA6E0AC0DC
:105C4C00DFFF20EE02F00C50D9260D50DA22DE2AAE
:105C5C00000EDD2212004FEC3BF00009D8B439EFF6
:105C6C002EF03BEF2EF078EF2EF049EF2EF0CCEC2F
:105C7C003BF094EF2EF0C8EC3BF094EF2EF0C0EC20
:105C8C003BF094EF2EF012C113F013C114F021EE7F
:105C9C0006F002D85CEF2EF00500FA6EDE50FD6EB9
:105CAC00DE50FE6EF850FF6EFA501200156E166A3A
:105CBC001650000AD8B465EF2EF045EF2EF01550B3
:105CCC00010AD8B445EF2EF0030AD8B43DEF2EF0FC
:105CDC00010AD8B441EF2EF0070AD8B445EF2EF0E4
:105CEC0045EF2EF0010123911DC1D9FF1EC1DAFF32
:105CFC001D4B1E2BDF50D0EC3BF001011F07D8A031
:105D0C0020071F512011D8A48EEF2EF090EF2EF00B
:105D1C0093EF2EF0060E94EF2EF0030E1200420EAF
:105D2C005524D96EDA6A010EDA22000EDF6EABA4AE
:105D3C00A2EF2EF0A4EF2EF0B9EF2EF0420E552468
:105D4C00D96EDA6A010EDA220101DF8202D8B9EFCC
:105D5C002EF00500FA6E9551FD6E9651FE6EF850C0
:105D6C00FF6EFA501200ABA2BEEF2EF0C0EF2EF079
:105D7C00D5EF2EF0420E5524D96EDA6A010EDA22D6
:105D8C000101DF8402D8D5EF2EF00500FA6E935195
:105D9C00FD6E9451FE6EF850FF6EFA501200420EDA
:105DAC005524D96EDA6A010EDA22DF50D8B4E1EF4D
:105DBC002EF0E3EF2EF0F3EF2EF002D8F1EF2EF0F1
:105DCC0005000101FA6E9151FD6E9251FE6EF85074
:105DDC00FF6EFA501200F5EF2EF014EC3AF043EC93
:105DEC0037F01200000E0F6E0DBE01EF2FF0FFEF1B
:105DFC002EF007EF2FF00C6C0D1ED8B00D2A010EF3
:105E0C000F6E0BBE0EEF2FF00CEF2FF014EF2FF0E8
:105E1C000A6C0B1ED8B00B2A010E0F1A000E116E55
:105E2C00000E106E0C500D10D8B41FEF2FF021EF98
:105E3C002FF049EF2FF0010E0E6E29EF2FF0D890B6
:105E4C000C360D360E2A0DAE2EEF2FF030EF2FF054
:105E5C0025EF2FF0D890103611360C500A5C0D50EF
:105E6C000B58D8A03CEF2FF03EEF2FF043EF2FF064
:105E7C000C500A5E0D500B5A1080D8900D320C321B
:105E8C000E2E30EF2FF00F50D8B44FEF2FF051EF04
:105E9C002FF055EF2FF0106C111ED8B0112A10C036
:105EAC000AF011C00BF012004FA05FEF2FF061EF62
:105EBC002FF06BEF2FF01CC013F01DC014F01AC0A4
:105ECC0015F01BC016F0B0EC37F01FBE70EF2FF0C2
:105EDC0072EF2FF078EF2FF01EC023F01FC024F0CC
:105EEC007CEF2FF0000E246E000E236E000E226E3F
:105EFC00000E216E8EEF2FF0000E0B6E200E0A6E30
:105F0C001AC00CF01BC00DF0CCEC2DF0214A222A4B
:105F1C002350215C2250800A206E2450800A205885
:105F2C00D8A09BEF2FF09DEF2FF082EF2FF04FB00A
:105F3C00A2EF2FF0A4EF2FF0AEEF2FF01CC013F058
:105F4C001DC014F01AC015F01BC016F0B0EC37F0E1
:105F5C001CC00AF01DC00BF03FEC39F023500A2492
:105F6C001A6E24500B201B6E1200C30E0A6E020E0A
:105F7C000B6E170E0C6E75EC39F00F6E060E0101E0
:105F8C00246F020E256FC3C226F1C4C227F1C5C20D
:105F9C0028F1C6C229F1C7C22AF1C8C22BF1C9C265
:105FAC002CF1CAC22DF1CBC22EF1CCC22FF1CDC235
:105FBC0030F1CEC231F1CFC232F1D0C233F1D1C205
:105FCC0034F1D2C235F1D3C236F1D4C237F1D5C2D5
:105FDC0038F1D6C239F1D7C23AF1D8C23BF1D9C2A5
:105FEC003CF1030E3D6F0FC03EF1000E116E000E22
:105FFC00106E240E1024D96E010E1120DA6EDF50B3
:10600C0026EC3BF0104A112A11BE16EF30F011505D
:10601C0009E11B0E105CD8A016EF30F018EF30F031
:10602C00FFEF2FF01200000E176E13BE22EF30F0B0
